:100000000C9489020C94C1020C94C1020C94C1029C
:100010000C94C1020C94C1020C94C1020C94C10254
:100020000C94C1020C94C1020C945C250C943026F3
:100030000C9478200C94C1020C94C1020C94C1025F
:100040000C94C1020C94C1020C94C1020C94C10224
:100050000C94C1020C94FF200C94C1020C94C102B8
:100060000C94C1020C94C1020C94C1020C94C10204
:100070000C94C1020C94C1020C94C1020C94C102F4
:100080000C94C1020C94C1020C94C1020C94C102E4
:100090000C94C1020C94C1020C94C1020C94C102D4
:1000A0000C94C1020C94C1020C94C10229001E00E0
:1000B0001F0020002100220023002400250026002C
:1000C00027002D002E0031002B0014001A0008001C
:1000D000150017001C0018000C00120013002F0060
:1000E00030003500E00004001600070009000A0097
:1000F0000B000D000E000F003300340000002A003A
:10010000E10000001D001B000600190005001100A1
:100110001000360037003800E50028000000E2003B
:10012000E300000000002C000000000000000000C0
:100130000000E700E6002152A6003A003B003C0028
:100140003D003E003F0040004100420043004400AB
:1001500045004900390020782178227827782878CE
:1001600001000100460047004800520001004C0019
:10017000AF00AA00A900A800B0000100550054007B
:100180004A004B0050004F00000001000100000039
:10019000BC00AE00BB0001000100570056004D003E
:1001A0004E00510001005800000001000100000055
:1001B000000001000000000000000000000001003D
:1001C000010001001E0F0500047F3F1F643214640C
:1001D0003214783C1E1E140A052223252628292ABB
:1001E0002C2D2F3032333536383A3B3D3E4042439A
:1001F0004547494A4C4E5051535557595A5C5E60D9
:1002000062646668696B6D6F71737577797B7D7FEA
:1002100081838587898A8C8E90929496989A9C9EE9
:100220009FA1A3A5A7A8AAACAEAFB1B3B4B6B8B905
:10023000BBBCBEBFC1C2C3C5C6C7C9CACBCCCDCE6D
:10024000D0D1D2D2D3D4D5D6D7D7D8D9D9DADADB50
:10025000DBDBDCDCDCDCDCDDDDDDDDDCDCDCDCDCDC
:10026000DBDBDBDADAD9D9D8D7D7D6D5D4D3D2D21B
:10027000D1D0CECDCCCBCAC9C7C6C5C3C2C1BFBE03
:10028000BCBBB9B8B6B4B3B1AFAEACAAA8A7A5A36E
:10029000A19F9E9C9A98969492908E8C8A8987852D
:1002A00083817F7D7B79777573716F6D6B6968660C
:1002B0006462605E5C5A5957555351504E4C4A49DE
:1002C00047454342403E3D3B3A3836353332302F86
:1002D0002D2C2A292826252322FFAA7F55400001FC
:1002E00001010101010101010202020202020202F6
:1002F00002030303030303030304040404040404C8
:10030000050505050506060606060707070707088B
:10031000080808090909090A0A0A0B0B0B0C0C0C3E
:100320000D0D0D0E0E0E0F0F0F10101111111212D8
:1003300013131414151516161717181819191A1A55
:100340001B1B1C1D1D1E1E1F2020212222232424B6
:10035000252626272829292A2B2C2D2D2E2F3031F2
:100360003232333435363738393A3B3C3D3E3F4004
:100370004142434445464748494A4C4D4E4F5051EF
:100380005354555658595A5B5D5E5F6162646566A9
:1003900068696B6C6D6F7072737577787A7B7D7E30
:1003A0008082838587888A8C8E8F91939596989A80
:1003B0009C9EA0A2A3A5A7A9ABADAFB1B3B5B7BA98
:1003C000BCBEC0C2C4C6C9CBCDCFD1D4D6D8DBDD6C
:1003D000DFE2E4E7E9EBEEF0F3F5F8FAFDFF1003F6
:1003E00054006F006B0079006F0036003000000091
:1003F0001E0354006F006B0079006F0020004B005B
:100400006500790062006F00610072006400000006
:100410000403090409023B00020100A032090400A0
:10042000000103010100092111010001224400071C
:10043000058103080001090401000103000000090F
:100440002111010001226D00070582032000011225
:100450000100020000000836546060010001020043
:100460000105010980A101850319012AB7001501C1
:1004700026B700950175108100C0050C0901A10186
:10048000850419012AA002150126A0029501751004
:100490008100C005010906A1018506050719E029AB
:1004A000E715002501950875018102050719002946
:1004B000EF1500250195F075018102050819012944
:1004C00005950575019102950175039101C005011E
:1004D0000906A101050719E029E71500250195087E
:1004E000750181029501750881010507190029FF31
:1004F000150026FF009506750881000508190129D9
:100500000515002501950575019102950175039169
:1005100001C011241FBECFEFDAE0DEBFCDBF04B6AD
:1005200003FE18C080915B0390915C03A0915D0372
:10053000B0915E038730904BA740B04B59F41092B6
:100540005B0310925C0310925D0310925E03E0E087
:10055000F8E3099511E0A0E0B1E0E4EFF4E502C0B2
:1005600005900D92AA3DB107D9F723E0AAEDB1E0BD
:1005700001C01D92AB35B207E1F70E9477120C94CF
:10058000E5290C9400008230B8F46530A8F44E30B0
:1005900098F450E09EE0699F400D511D1124FA012E
:1005A00096E4899FE00DF11D1124EE0FFF1FE45525
:1005B000FF4F85919491089581E090E008950E9405
:1005C000C302089581E008950E94E202089581E047
:1005D00008950E94E20208950E94E9020895089594
:1005E0000E94EF020895A6E0B0E0E9EFF2E00C947B
:1005F000912849835A839E833091E10189819A81B0
:1006000031111AC03E81332399F0222389F00E94D0
:10061000E408182F682F89819A810E94C008698197
:100620007A81812F0E94FC0F2696E3E00C94AD287E
:100630000E94D208182FF3CF0E94E40869817A81C2
:10064000F1CFFC01262F4081518162817381848129
:1006500095810E94F3020895CF93DF93EC0161E04E
:100660000E942103BE010E94E402DF91CF91089510
:10067000CF93DF93EC0160E00E942103BE010E9452
:10068000F002DF91CF91089581E008950E94440324
:100690000895CF93C82F0E9495078C2F0E94460380
:1006A0002FEF84E39CE0215080409040E1F700C0B0
:1006B0000000CF91089581E00E9449030E94232108
:1006C000089580E00E9449030E94472108950F93F6
:1006D0001F93CF93DF938C0161E00E942103EC0113
:1006E000F801858181110E94CC19B801CE010E94C8
:1006F000EC02811106C080E0DF91CF911F910F9134
:100700000895B801CE010E943F1B8823A1F3B801D0
:10071000CE010E94831E882371F3B801CE010E948E
:10072000431D882341F3B801CE010E94191D88237F
:1007300011F3B801CE010E94EB198823E1F2F80110
:100740008581882361F0C330FCE7DF07E9F058F4C6
:10075000C115ECE7DE07A9F0C130DC47B9F0C801EC
:100760000E94E702C9CFCB358CE7D807A9F0CC357A
:10077000ECE7DE0771F0CA35DC4789F70E942B0DE4
:10078000EECF0E945B03B7CF0E94330D0E9461033E
:10079000B2CF0E94210DE3CF0E942F0DE0CF0E9427
:1007A000542080E00E941E1B0E94F40308950E94C2
:1007B0006E1A0E94F8030E945920089581E008955E
:1007C0000895CF93DF93D82F0E94DE03C82F88238C
:1007D00019F08D2F0E94E0038C2FDF91CF910895A7
:1007E00008950E94E103089580E00E94F1030895B6
:1007F0000E94CC1E0E94F1030895CF930E94CC1E4C
:10080000C82F8091DC018C1779F0C093DC010E9425
:10081000E4206093DD017093DE018093DF0190930B
:10082000E0018C2F0E94F103CF910895ADE0B0E07C
:10083000ECE1F4E00C949228488759876A877B871B
:100840008C879D8791110E94310C1F8286E0FE01EA
:100850003896DE01119601900D928A95E1F78D810F
:1008600081110DC029813A814B815C816D817E812E
:100870008F810E947B0B2D96E2E00C94AE28CE0176
:1008800001960E942C038111EDCFF5CFFC0124814C
:10089000213021F4808191810E9416090895CF931F
:1008A000C82F8823C9F08238C9F40E94D91E81FD5F
:1008B00013C089E30E94EA1F0E94C50C2FEF87EE48
:1008C00093E0215080409040E1F700C0000089E3B0
:1008D0000E9401200E94C50CCF9108958338A1F495
:1008E0000E94D91E80FDF8CF83E50E94EA1F0E9476
:1008F000C50C2FEF81EE94E0215080409040E1F74D
:1009000000C0000083E5E4CF8438A1F40E94D91E22
:1009100082FDE2CF87E40E94EA1F0E94C50C2FEF00
:1009200081EE94E0215080409040E1F700C000004B
:1009300087E4CECF8CEF8C0F813A98F48C2F0E94F5
:10094000E21C8111C9CF8C2F0E94611F882329F0DE
:100950008C2F0E9401200E94C50C8C2F0E94EA1F40
:10096000B9CF80E28C0F883048F4C77081E001C0B5
:10097000880FCA95EAF70E94140CACCFEBE5EC0F98
:10098000E33040F4F0E0E45AFE4F808190E00E94B2
:10099000F51EA2CFC85ACB3108F09ECFEC2FF0E065
:1009A000EE0FFF1FEA5DFE4F808191810E941A1FAA
:1009B00093CF882309F44DC0823879F40E94D91E60
:1009C00081FF47C089E30E94EA1F0E94C50C89E3AA
:1009D0000E9401200E94C50C0895833859F40E949A
:1009E000D91E80FF36C083E50E94EA1F0E94C50C15
:1009F00083E5EECF843859F40E94D91E82FF29C0C6
:100A000087E40E94EA1F0E94C50C87E4E1CF9CEFB7
:100A1000980F913AE8F290E2980F983050F487706E
:100A200091E001C0990F8A95EAF7892F0E941A0C6C
:100A3000D1CF9BE5980F933028F490E080E00E949E
:100A4000F51E0895885A8B3120F490E080E00E94D2
:100A50001A1F08951F93CF93DF93182FEB010E9465
:100A60004F04209739F4812F0E94D904DF91CF9150
:100A70001F9108958FE99FE00197F1F700C00000F2
:100A80002197EFCF70E060E0893311F460E570E00A
:100A90000E942A050895882321F00E94140C0E94C8
:100AA000C50C0895882321F00E941A0C0E94C50CE1
:100AB0000895B0E0A0E0EFE5F5E00C948B286C0120
:100AC000D62FC72FFC011581068102950F700E9459
:100AD0000A0CE82E8823F9F0E12E1123E1F08C2F87
:100AE000807F803461F080E28D0F883008F18C2F98
:100AF000807E803221F4D230D8F00023C9F080917A
:100B00000E0382FF15C082E00E94F50C0E940A0CC1
:100B100091E0E82EE926BC2EB2949FE0B922FBE0DA
:100B2000FB15B8F1EB2DF0E0E951F64D0C944B2894
:100B3000E12CF1CF0C2F0F70C07F11F00295007FD8
:100B4000112399F0002359F080E28D0F883010F0C6
:100B5000D11107C0802F0E94140C0E94C50C8D2F4C
:100B60005AC0802F0E94240CF8CF8D2F0E94D904E8
:100B7000002379F080E28D0F883010F0D11104C08D
:100B8000802F0E941A0C03C0802F0E942A0C0E9402
:100B9000C50CEB2DE850FF0B349720F40E94CC1EBF
:100BA0000E94F103EE2089F00E94060C80FD0DC02A
:100BB000F60115820E94000C0E941E08C6010E94C8
:100BC00060070E94000C0E942E08CDB7DEB7E9E056
:100BD0000C94A7282C2F2F70F22EC07FC03219F052
:100BE000F29480EFF822DD2341F0D130D1F11123CE
:100BF00009F444C00023F1F0B2CF80910E0382FDCE
:100C000015C0112359F0FF2029F08F2D0E94140CDC
:100C10000E94C50C80E00E944F04BBCF80E00E9480
:100C2000D904FF2009F4B5CF8F2DABCF112369F084
:100C3000011104C08F2D0E944B05ABCF013009F08C
:100C4000A8CF8F2D0E94480CA4CF0111A2CF8F2DC9
:100C50000E9452058F2D0E94540C8F2D0E94380C3B
:100C600098CF112321F0063008F093CFE3CF053061
:100C700008F08FCF8F2D0E9452058BCF0023D1F328
:100C8000D93349F43FEF87EE93E0315080409040F4
:100C9000E1F700C000008D2F0E94D9047ACF8C2F7D
:100CA00086958695837069F0813009F072CF8D2F1B
:100CB0009C2F9370111102C080E090E00E941A1FD7
:100CC00068CF8D2F9C2F9370111102C080E090E0AF
:100CD0000E94F51E5ECF8C2F8370A1F5111159CFA4
:100CE0004D2F429546954770440F440F2D2F2F707E
:100CF00030E0042E02C0220F331F0A94E2F790E086
:100D000080E0D4FF09C08FE090E002C0880F991FF7
:100D10004A95E2F780959095C695C695C370822B4B
:100D2000932BC23049F058F4C13019F00E94EE07FD
:100D300030CF0E94E5072DCF0E94F7072ACF0E94EF
:100D4000E20727CF8695112311F08C2F817088231D
:100D500009F41FCF4D2F429546954770440F440F1D
:100D60002D2F2F7030E0042E02C0220F331F0A9463
:100D7000E2F790E080E0D4FF09C08FE090E002C08D
:100D8000880F991F4A95E2F780959095C695C6956C
:100D9000C370822B932BC23049F058F4C13019F044
:100DA0000E945908F6CE0E945008F3CE0E946208B5
:100DB000F0CE0E940608EDCECF70112329F08C2FC3
:100DC0000E941E088D2F37CF8D2F0E9452058C2F29
:100DD0000E942E08DECED23F41F160F4D03FB9F040
:100DE000D13F81F0112309F443C00111B8CE8C2FFB
:100DF0008F711FC0D33F01F1D43FA1F780910E0343
:100E000082FD24C08C2F8F71112311F312C0112386
:100E100041F0053008F0BDCE8C2F8F710E94400844
:100E2000B8CE063008F0B5CEF7CF8C2F8F711111E8
:100E3000CFCF0E941E08ADCE112329F08C2F8F71C9
:100E40000E941208A6CE0E940D08A3CE112331F0F5
:100E500063E08C2F8F710E94D70C9BCE81E00E94A3
:100E6000F50C023008F495CE82E00E94F50C91CE8C
:100E7000002359F0D93309F00ECFEFEFF7EE23E05E
:100E8000E150F0402040E1F704CF8C2F8F71A0CFCC
:100E90000F931F93CF93DF93EC01688179818D814C
:100EA0000E9421098C010E946B080E94E107B80191
:100EB000CE010E945905DF91CF911F910F910895A6
:100EC000CF93DF93EC018C81882399F0CE010E94AF
:100ED0006703811111C00E940A0C882351F08D8193
:100EE000882339F080910E0382FF03C082E00E94C4
:100EF000F50CDF91CF910895CE010E944807CE01F5
:100F00000E943803F6CF90E080E00E94F51E90E04A
:100F100080E00E941A1F0E94310C0E94C50C0895A7
:100F20000E9418200E94830708950E94210C0E94AD
:100F30009007089592959F70963091F058F4925FC3
:100F40009F70923058F4803F19F030F4883E30F4AE
:100F500081E008959A5FF4CF843FD1F380E0089553
:100F6000883EB0F3813FD1F7F3CFFC0124812223E7
:100F700039F0808191810E9416090E949A07089594
:100F800080E00895A6E0B0E0E8ECF7E00C94922849
:100F90002696E2E00C94AE28A7E0B0E0E2EDF7E0A0
:100FA0000C9492282796E2E00C94AE2808950E94B3
:100FB000D60708950E94D7079093090280930802EC
:100FC000089508950E94DA0708952091080230914B
:100FD0000902822B932B0E94DA07089520910802C0
:100FE00030910902822393230E94DA070895209109
:100FF000080230910902822793270E94DA07089598
:101000000E94D60708950E94000808950E940308D0
:101010009093070280930602089590E080E00E947A
:101020000608089521E030E0A90102C0440F551FD1
:101030008A95E2F7CA010E940608089521E030E08F
:1010400002C0220F331F8A95E2F780910602909129
:101050000702822B932B0E940608089521E030E0BE
:1010600002C0220F331F8A95E2F7209530958091B8
:10107000060290910702822393230E940608089596
:1010800021E030E002C0220F331F8A95E2F7809101
:10109000060290910702822793270E94060808956E
:1010A0002091060230910702822B932B0E940608A2
:1010B00008952091060230910702822393230E9413
:1010C000060808952091060230910702822793278F
:1010D0000E94060808950895262F277091E001C008
:1010E000990F2A95EAF723E0769567952A95E1F717
:1010F000660F771F660F771FFA01E60FF71F50E0A4
:1011000040E0682F70E08191DF0111979B01042E70
:1011100002C0369527950A94E2F721702195282779
:10112000292328272C934F5F5F4F4430510559F7EF
:101130000895A82FA77023E0969587952A95E1F743
:10114000880F991F880F991FFB01E80FF91F50E0C6
:1011500040E080E0219130E00A2E02C036952795CC
:101160000A94E2F721703327042E01C0220F0A945B
:10117000EAF7822B4F5F5F4F4430510559F70895CE
:10118000262F953070F48E3060F4682F70E08EE07A
:10119000989F600D711D112442EE51E0822F0E9434
:1011A0006C080895292F953068F48E3058F490E03B
:1011B00062EE71E03EE0239F800D911D11240E949C
:1011C0009908089580E00895B0E0A0E0EAEEF8E024
:1011D0000C948B287C0100910602109107028091EB
:1011E000080290910902082B192BCFE0D0E0CC2403
:1011F000C394D12CBC2EC6010C2E02C0880F991F9F
:101200000A94E2F780239123892B49F4219790F7E0
:10121000B12C8B2DCDB7DEB7E9E00C94A728B70130
:101220008C2F0E940810019789F3F3CFCF93DF939F
:10123000EC010E94E408BE010E940810DF91CF91EA
:1012400008951F93CF93DF93EB019091E1019923D0
:1012500039F0CB010E941609DF91CF911F910895BB
:10126000882369F0CB010E94E408182F682FCE0173
:101270000E94C008BE01812F0E940810EDCFCB0153
:101280000E94D208182FF6CF1F93CF93DF93C091FF
:101290000A0217E080910B028C1304C0DF91CF91FA
:1012A0001F910895D0E01C9FF0011D9FF00D1124A7
:1012B000E45FFD4F208131814281538164817581DA
:1012C00086810E94CC072196C770E4CF209144020A
:1012D0003091450240914602509147026091480288
:1012E0007091490280914A020E94CC070895CF93E1
:1012F000DF9380914A02807F09F04DC080914902BE
:10130000882309F448C0E0910A0250910B02C09171
:101310004502D0914402609146027091470247E035
:101320005E17C9F18E2F90E0E49FF0011124E45F75
:10133000FD4F2481222391F1489FF001499FF00D38
:101340001124DF01A45FBD4F11962C9111972C132E
:1013500025C02C912D1322C015962C911597211183
:101360001DC012962D913C91261B370B283C310550
:10137000A8F480914A028F70806180934A02EE5EE9
:10138000FD4F80818F708061808384E492E00E94B1
:1013900060070E944409DF91CF910895FC013196C6
:1013A000E770BECF482F20910A0290910B0257E0C0
:1013B000291302C080E0089530E0529FF001539F4E
:1013C000F00D1124E45FFD4F8181681306C0808118
:1013D000481303C085818111EECF2F5F3F4F2770E7
:1013E000E7CFA4E1B0E0E7EFF9E00C9488288C01A6
:1013F00086E0F801DE011F9601900D928A95E1F7D3
:10140000F8018481E58094E4A92E92E0B92E9091B0
:10141000480291111FC08823D1F0EE20A9F0C80125
:101420000E94B507F82E882379F087E0F801D501EE
:1014300001900D928A95E1F7C5010E9446040E9431
:1014400077090E9466095FC0C8010E946007FF24F7
:10145000F39459C0C080D18082809380F09049027B
:101460002091460230914702A401421B530BFF20FA
:1014700009F4F9C0483C510508F0A7C0882309F4D5
:1014800042C09091450280914A02282F207F09F0A6
:101490005CC09D1116C090914402C91212C0E110A7
:1014A0004EC08F70806180934A020E94660984E476
:1014B00092E00E94600780914A02F8018683F12C35
:1014C00022C0E1103CC06D2D8C2D0E94D2096D2DE3
:1014D0008C2D0E94D209E82E8111F1CFCF86D88AB7
:1014E0008F8598890E941609292F22952F70243004
:1014F00078F49F702230A8F09923B9F0F801968112
:10150000907F99F4FE2C8F2D6496ECE00C94A42827
:101510002A5F2F70223068F0C8010E946007EF2C0C
:10152000F1CF992311F0882369F3805E883050F35E
:10153000F3CF803F38F3815F833070F7E3CF809142
:101540004A02816080934A02BACF9D1113C09091E4
:101550004402C9120FC0E1100DC08683C8010E9469
:10156000600787E0F801A4E4B2E001900D928A954B
:10157000E1F767CFC8010E94B507882309F464CF5B
:10158000EE2009F461CF80914A02803288F02091E8
:10159000440230914502398728879B868A8690913C
:1015A00048029C871D868E87CE0108960E946007A0
:1015B00087E0F801A4E4B2E001900D928A95E1F78A
:1015C0000E9477090E94660942CF90914A02292F12
:1015D000207FA1F4682D9A8A898AA6017A899E2D96
:1015E0000E94C20784E492E00E94600787E0F50150
:1015F00011928A95E9F70E94660961CF882309F460
:1016000082CF809145028D1110C080914402C81292
:101610000CC0E1100AC09683C8010E94600787E0F1
:10162000F50111928A95E9F76ECFC8010E94B507BE
:10163000882309F409CFEE2009F406CF80914A02ED
:10164000803208F4B5CF20914402309145023A83AC
:1016500029839C828B82909148029D831E828F8376
:10166000CE010196A3CF483C5105B8F5882309F473
:10167000EECEFE2CEE2009F4E7CE809145028D11CE
:101680001EC080914402C8121AC080914A0280FD97
:101690000DC0982F907F51F08683903F09F45ECF64
:1016A000982F907F905F8F70892B57CF87E0F8013C
:1016B000A4E4B2E001900D928A95E1F724CFC8012D
:1016C0000E94B507811174CF80914A028160809396
:1016D0004A02C8010E94600716CF682D9A8A898A3B
:1016E000A6017A899E2D0E94C20787E0F50111921A
:1016F0008A95E9F7A6CEAEE0B0E0E1E8FBE00C9415
:101700009128288739874A875B876C877D878E87F2
:10171000CE0108960E94F1098823B1F06C856623FA
:1017200041F0288539854A855B857D858E850E94B7
:10173000CC0717E080910A0290910B0289133DC0FB
:101740002E96E3E00C94AD2887E0FE013896DE018A
:10175000119601900D928A95E1F78C85882349F3C3
:1017600020910B0230E0C9010196877099274091C2
:101770000A024817190699F097E0929FD001939FAB
:10178000B00D1124A45FBD4FFE01319601900D9262
:101790009A95E1F780930B020E944409CACF0E94F8
:1017A000950710920B0210920A0287E0E4E4F2E03F
:1017B000DF011D928A95E9F7BCCF819FC0011124FA
:1017C000845F9D4F0E94F109882309F4B9CFE0910D
:1017D0000A021E9FF0011124E45FFD4F2081318138
:1017E000428153816481758186810E94CC078091FA
:1017F0000A0290E001968770992780930A029ACF97
:1018000080917302869586958695089580917302DE
:101810008770089590917302977081E009F480E0D9
:10182000089580919F02089590919F02892B809343
:101830009F020895809590919F02982390939F0214
:10184000089510929F02089590919E02892B809393
:101850009E020895809590919E02982390939E02F7
:10186000089510929E02089508950E94340C0895E0
:1018700090917402292F282331F080958923809339
:1018800074020E94350C089508950E94440C089536
:1018900090917502292F2823281729F0982B9093CF
:1018A00075020E94450C089590917502292F2823F6
:1018B00031F080958923809375020E94450C08952C
:1018C00080917502882329F01092750280E00E94B1
:1018D000450C0895CF93C0919F0280919E02C82B22
:1018E00080917502882331F0C82B0E943F1F81111F
:1018F0000E94600C8C2FCF910895CF93DF93C091FD
:101900000601D09107010E946A0C8883C0910601EC
:10191000D091070148E050E06BE672E0CE010E94F2
:101920005829892B59F088E0FE01ABE6B2E001901E
:101930000D928A95E1F7CE010E94DC1EDF91CF91D6
:101940000895CF93DF93C0910401D09105010E94C7
:101950006A0C8983C0910401D091050140E250E0F6
:101960006BE472E0CE010E945829892B59F080E285
:10197000FE01ABE4B2E001900D928A95E1F7CE0151
:101980000E94E71EDF91CF91089580912501882361
:1019900039F080910D0387FF03C00E94A10C0895C8
:1019A0000E947D0C089508950E94D30C0895909193
:1019B0000E0392FF11C098E0899F90011124622BC1
:1019C000609373020E941E0880917302869586952B
:1019D00086950E94D40C08950E941E0808951092C6
:1019E000730280E00E94D40C089590917302809558
:1019F000892380937302282F277069F4891759F07F
:101A000090910E0392FF07C08695869586950E9459
:101A10002E080E94EF0C089590910E0392FB22274E
:101A200020F9281769F080FB92F990930E038091BA
:101A30000D0390910E030E94540D82E00E94F50C5C
:101A4000089580910E0382FB882780F991E0892711
:101A50000E940C0D089581E00E940C0D089580E015
:101A60000E940C0D08956FEF7FEF90E080E00E94E0
:101A7000B029089590E080E00E947C2921E0853E15
:101A80009E4F09F020E0822F089582E090E00E94AE
:101A90006E29089583E090E00E946E29089584E005
:101AA00090E00E947C290895BC0184E090E00E94AF
:101AB000B0290895AB01BC018FE090E00E94A429F9
:101AC0000895AB01BC0183E190E00E94A429089530
:101AD00060E070E0CB010E94610D089560E070E06D
:101AE000CB010E945A0D0E94680D0895A8E0B0E055
:101AF000ECE7FDE00C94922865EE7EEF90E080E04C
:101B00000E94B02960E082E090E00E94922981E08A
:101B100090E0909309028093080261E083E090E0F6
:101B20000E94922960E074E184E090E00E94B02974
:101B300060E086E090E00E94922960E087E090E01B
:101B40000E94922940E050E0BA0188E090E00E94B3
:101B5000A42960E083E290E00E94922960E08CE09A
:101B600090E00E94922960E08DE090E00E9492292E
:101B700019821A821B821C821D821E821F82188675
:101B800048E050E067E170E0CE0101960E948229B2
:101B900040E050E0BA018FE190E00E94A4290E9449
:101BA0006E0D2896E2E00C94AE280E94760D089502
:101BB000682F8EE090E00E9492290895A6E0B0E0A0
:101BC000E4EEFDE00C9490280E94D8208C018091D6
:101BD000A0029091A1028017910781F019821A82C8
:101BE0000E94D820682F49815A81792F80E090E0A7
:101BF0000E9416041093A1020093A0022696E4E02E
:101C00000C94AC280E94E4206093B0027093B1025F
:101C10008093B2029093B3026093AC027093AD02D2
:101C20008093AE029093AF020895089508950E94A4
:101C3000150E089508950E941A0E08958EEF90E1F2
:101C40000E948C120E94160E0E94170E089581E0C9
:101C500008950E94270E08950E94270E0895089562
:101C600008950E942F0E0E94300E08950E943A0D92
:101C7000811102C00E94D50D0E94450D8093B402CF
:101C80000E944F0D90930E0380930D030E946D1CD4
:101C90000E944A0D90E00E94E20780910602909116
:101CA00007020E94030808950E94CF200E94CE11CF
:101CB0000E94360E0E94F0030E94111C0E946E1AB0
:101CC0000E94EC180E941B0E0895A6E0B0E0EBE61F
:101CD000FEE00C9486280E94290E81110CC00E94FF
:101CE000DE0D0E94CD190E94101C0E94FD03269655
:101CF000EEE00C94A2280E94E41122EA822E22E057
:101D0000922E640110E0F601E190F1906F01812FB5
:101D10000E9408111F5F153009F44BC0E816F90640
:101D200091F38091B40281FD0E9411110E942C0E4A
:101D3000782E10E066246394812F0E9408117C01A4
:101D4000F401A190B1904F018A159B0561F100E06B
:101D5000CC24C394D12CAE24BF24C5018C219D2159
:101D6000892BC1F07720B1F009831A830E94D82013
:101D70009C838B836D8221E0C7018C219D21892B5F
:101D800009F420E049815A816B817C818D81922FF9
:101D90000E9416040F5FCC0CDD1C0E30F1F6F4012E
:101DA0003297F182E0821F5F153031F60E94020EF9
:101DB00098CFE816F90609F0B4CF91CF1F93CF93CF
:101DC000DF930E940D10EC01C11580E5D807F0F5F6
:101DD000C11580E4D80708F09CC0C03ED10520F5AD
:101DE000CD3CD10508F082C0C83AD10578F4C53A97
:101DF000D10508F073C0C130D10519F1209709F160
:101E0000C430D105F0F4D0E0C0E01BC0C33CD10524
:101E1000D0F7C85AD0E0CC0FDD1FC15ADE4F099071
:101E2000D881C02DD4640DC0C11580E2D80708F058
:101E3000D1C0C11581E0D80708F05AC0C83ED1050D
:101E400010F7CE01DF91CF911F910895C03682E542
:101E5000D80718F5C03482E5D80708F06BC0C03247
:101E600082E5D80708F05FC0C11582E5D80708F4FD
:101E700097C02C2F2695269580E2289F900111244B
:101E80008C2F8370C1E0D0E002C0CC0FDD1F8A959B
:101E9000E2F7C22BD32BDD68D4CFC03A82E5D80756
:101EA00060F4C03882E5D80708F459C0CF71D0E09B
:101EB000DC2FCC27C46FD06AC4CFC03C82E5D807E2
:101EC00008F462C0C03E82E5D80708F09CCFDC2F42
:101ED000CC27CC27DF71C06FD06AB3CFC55AD0E012
:101EE000CB56DE4FC881D0E0D064ABCFD065A9CF50
:101EF0008D2F0E94AF10182FCE0199270E940D1030
:101F0000C12FD0E0DC2FCC27CC27DF71C82BD92BF9
:101F100098CFCE0199270E940D10CC27DF70C82BD7
:101F2000D92BD06A8ECFCF71D0E0DC2FCC27C16FF8
:101F3000D06A87CF2C2F26952695277080E2289F80
:101F4000900111248C2F8370C1E0D0E002C0CC0F2F
:101F5000DD1F8A95E2F7C22BD32BDC6872CF2C2FC2
:101F600026952695277080E2289F900111248C2FBA
:101F70008370C1E0D0E002C0CC0FDD1F8A95E2F78C
:101F8000C22BD32BDA685DCF8C2F8F710E94AF10DC
:101F9000C82FD0E0DC2FCC27CC27DF71D06251CF07
:101FA0008C2F8F710E94AF1055E0D695C7955A952A
:101FB000E1F7CF70D0E0DC2FCC27282F30E084FF72
:101FC00005C044E0220F331F4A95E1F7C22BD32B03
:101FD000D06937CF8D2F8F710E94AF10182FCE018F
:101FE00099270E940D10C12FD0E0DC2FCC27CC27E1
:101FF000DF71C82BD92BD2CF462F753030F46E301D
:1020000020F4672F0E94DF02089590E080E0089599
:102010000E94FC0F0E94DE0E089582389105B9F1EE
:10202000B0F48133910509F47DC048F489329105FB
:1020300009F46DC08A32910509F47BC00895853397
:10204000910509F45FC08933910509F10895833E34
:102050009105D9F138F4803E910529F1823E910530
:1020600079F10895863E9105D9F1873E910509F4ED
:102070003EC0843E910541F520910E0321FF24C00E
:1020800080910D0384FD19C087EE90E008952091A2
:102090000D03237009F05AC020910E0323FF14C0D2
:1020A00089E290E0089520910D0320FD38C0309121
:1020B0000E0330FF09C024FF43C090E080E0089584
:1020C00020910D0322FDF7CF089520910D0322FDED
:1020D0003AC030910E0330FD39C024FFF5CFEDCF6B
:1020E00020910D0323FFF0CF24FDE7CFCDCF20912A
:1020F0000D0323FD2EC030910E0331FFEECF84EE91
:1021000090E0089520910D0325FFDECFC9CF2091E7
:102110000D0325FD21C020910E0323FFD5CF89E3B8
:1021200090E0D2CF20910D0326FFCECF8AE290E03F
:10213000089520910D0326FFC7CF81E390E0089515
:1021400083EE90E0089582EE90E0089580EE90E0B6
:10215000089586EE90E0089585E390E008959091CB
:102160000D0392FF10C041E0282F2471243009F0A4
:1021700040E031E0282F2871283009F030E0431783
:1021800011F02CE0822793FF10C041E0282F24712A
:10219000243109F040E031E0282F2871283109F07E
:1021A00030E0431711F02CE0822730910E0330FF0E
:1021B00010C051E0282F2171213009F050E041E09A
:1021C000282F2871283009F040E0541711F029E039
:1021D000822731FF10C041E0282F2171213109F001
:1021E00040E031E0282F2871283109F030E0431712
:1021F00011F029E0822794FD877E089580E00895FC
:1022000008950E940011089508950E9404110895F0
:10221000E82FF0E0EE0FFF1FE75EFC4F8081918119
:102220000895089580EA8A95F1F7089500C0089509
:102230000E9412110895F894E82FE295EF70F0E0F3
:1022400031A1282F2F7081E090E001C0880F2A95DE
:10225000EAF7982F9095932391A392A1892B82A3BB
:10226000789408950F931F93CF93DF93C8E9D1E03B
:1022700089918F3F11F00E941B1181E0C63AD80767
:10228000B9F7C6EAD1E00BEA11E089918F3F11F06E
:102290000E941B110C171D07C1F7DF91CF911F91F1
:1022A0000F9108958F929F92BF92CF92DF92EF92FB
:1022B000FF920F931F93CF93DF93D82EE92EF62E24
:1022C0008A01C62FD0E0C856DE4F28812F3F09F47F
:1022D00053C0F894E22FE295EF70F0E031A12F7037
:1022E00081E090E001C0880F2A95EAF7932F982BA0
:1022F00091A392A18095892382A378940E941611BC
:1023000086EA882E81E0982EED2DFE2DBF01665FB6
:102310007F4FE12C6801C094D094D401BD904D0151
:1023200081919191AF0142505109BFEFBB1681F1EC
:102330002B2D22952F7030E0D90190962C9130E012
:10234000BB2DBF7002C035952795BA95E2F720FDE9
:102350001FC0802B912BDA018D939C93EE24E39484
:102360006E177F07D1F688818F3F11F00E941B11F5
:102370006E2D8F2D0E941811DF91CF911F910F911B
:10238000FF90EF90DF90CF90BF909F908F90089537
:102390008C219D21DA018D939C93E2CF0E94321112
:1023A0008AE0E9E1F3E0DF01982F1D929A95E9F7C1
:1023B000EFE0F3E0DF011D928A95E9F785E00E94E6
:1023C00038120E9401110895CF92DF92FF920F936D
:1023D0001F93CF93DF93CDB7DEB72A970FB6F8944C
:1023E000DEBF0FBECDBF8E010F5F1F4F8AE0F80129
:1023F00011928A95E9F7F12CCC24C394D12CA60133
:102400006F2DC8010E945211F394CC0CDD1CFEE02C
:10241000FF12F5CF4AE050E0B8018FE093E00E9450
:10242000582921E0009709F420E0892B41F08AE047
:10243000F801AFE0B3E001900D928A95E1F745E035
:1024400069E173E08FE093E00E943912182F0E9437
:102450000511812F2A960FB6F894DEBF0FBECDBFAF
:10246000DF91CF911F910F91FF90DF90CF90089552
:102470000895B0E0A0E0EFE3F2E10C948C286C0149
:102480007B01042FC22F222379F081E08093B702D1
:102490000E94D8209093B6028093B50280E0CDB719
:1024A000DEB7E8E00C94A828D091B702DD23B1F3A1
:1024B0008091B5029091B6020E94F020059770F3CA
:1024C00010E0000F111FA801B601C7010E94582992
:1024D000892B31F0A801B601C7010E946529CD2FD3
:1024E0001092B7028C2FDBCF0E94650E08950E94D8
:1024F00071200E9493220E941E0E0E94AD220E9413
:10250000540E0E94BA220E94BF220E9474120E949E
:10251000D9220E94310EF7CF9093DB018093DA012C
:102520000895EF92FF920F931F93CF93DF93EB01E8
:10253000E82FD1110EC0442321F0F0E0E252FD4F0C
:10254000E4916E2F7E2F8E2FCDB7DEB7E6E00C9490
:10255000AA280D2F10E0282F30E0442329F0225222
:102560003D4FF901249130E0F6E0CF9FC0011124E6
:10257000EFEFF0E0BF010E940128AB018C2F90E04B
:10258000880F991FA5E5A49FB001A59F700D112488
:10259000861B970B982F990F980FBF01601B710B2B
:1025A000629FD001639FB00D729FB00D11248B2FDD
:1025B0009D9FB0011124672F7727EF01C61BD70B12
:1025C000BE01629FE001639FD00D729FD00D112468
:1025D0007F01E91AF108E09EB001E19E700DF09EC6
:1025E000700D1124672F7727E61BF70BE29F800100
:1025F000E39F100DF29F100D1124E12F722F423036
:10260000510599F048F44115510569F041305105E3
:1026100081F0EB2F8D2F07C04430510569F080F019
:1026200046305105B1F76E2F8FCFE22F7B2F812FD0
:10263000FACFE22F7D2FF7CFEB2F822F712FF3CF21
:102640007B2F822FED2FEFCF41E00E949112089552
:1026500008950E9424130895CF93DF93762FE90104
:10266000682F842F0E942913798368838A83DF91DE
:10267000CF91089580912303982F9C7F29F4837034
:1026800084608093230308958C3AE8F38370886A0A
:10269000F8CFB0E0A0E0EFE4F3E10C948C2888E000
:1026A00090E00E9476296B017C0183E290E00E9419
:1026B0006E29282F30E040E050E060E070E080E0DC
:1026C00090E000E20E94B928B22FA32FF42FE52F4B
:1026D000D62FC72F97018601BC29A12BFE295E2F7B
:1026E000532B2B2F3A2F4F2F6D2F7C2FCDB7DEB7CB
:1026F000E8E00C94A828B0E0A0E0E1E8F3E10C9455
:10270000882849015A016B017C010E943A13840117
:10271000A4016A2D7B2D88E090E00E94A4299401F9
:102720004A2D5B2DB601C70100E20E94D428622F1A
:1027300083E290E00E949229CDB7DEB7ECE00C94E2
:10274000A428E3E2F3E085E0808311828FEF8283A7
:1027500083831482758125E030E04FEF5FEF60E006
:10276000868197810E947B1308958091230380FFC7
:1027700003C086958695089580E00895909127037B
:10278000933018F49F5F90932703882391F0209152
:102790002303309124034091250350912603609137
:1027A0002703709128038091290390912A030E94A6
:1027B0007B13089581E00E94BE1308959091270332
:1027C000992319F0915090932703882391F0209139
:1027D00023033091240340912503509126036091F7
:1027E0002703709128038091290390912A030E9466
:1027F0007B13089581E00E94DE13089560910C011F
:102800008091230380FF0FC070E080910B0123E0D3
:10281000829FC0011124E091D801F091D901855D1A
:102820009C4F0995089580910D0190910E0123E030
:10283000829FF0011124E55DFC4F891728F7118272
:10284000108212828F5F3396F8CF9091230390FF0E
:102850000EC090910D0120910E0133E0939FF00185
:102860001124E55DFC4F921718F00E94FE130895A5
:102870008183608342839F5F3396F5CFA3E0B0E00E
:10288000E4E4F4E10C9492289091230390FF0AC0B1
:102890009E012F5F3F4F0E942C134B8169818A81DB
:1028A0000E9425142396E2E00C94AE28CF93DF9388
:1028B000EC01EC81F0E0E752FE4F4491E3E2F3E0FB
:1028C000628181810E943E148C818F5F8C83DF91B5
:1028D000CF910895CF93DF93EC01E3E2F3E04381DE
:1028E00062818C810E943E148C818F5F8C83DF918A
:1028F000CF910895A3E0B0E0E0E8F4E10C949028D3
:102900008C018091B80281110AC09E012F5F3F4F58
:102910004FEF6FEF0E942C138A818093B802F80169
:102920006481613069F08091B80240E0662361F013
:1029300040E0623011F44091B80280E060E004C0F1
:102940006091B80240E080E00E942514F801848183
:1029500090E0019663E070E00E941528848323963E
:10296000E4E00C94AC28A3E0B0E0E9EBF4E10C94D3
:102970008B28082FD62EF42EC22E9091230390FF81
:102980002FC0E92FE695E695AE2FB0E0A555BE4FD6
:102990008C918093F4029C7F943031F59E012F5FDF
:1029A0003F4F802F0E942C134B8169818A810E94A6
:1029B000251400932403D0922503F0922603CC2003
:1029C00079F0209123036091270370912803302F21
:1029D0004D2D5F2D8091290390912A030E947B1336
:1029E0002396E9E00C94A728823019F4F09026038E
:1029F000E0CF863019F400912403DBCF8930D9F37E
:102A00008931B9F6E9516E2F6170B62EE695F0E086
:102A1000E752FD4F1491E12C60910F01E61618F07A
:102A20000E94FE13C6CFE19EC001112470E00E94F7
:102A30000128802FB11014C0860F20910D01622F44
:102A40006E0D7727771F9B01220F331F260F371F2D
:102A5000255D3C4F4F2D6D2D0E942C13E394DCCF50
:102A6000861BEBCFE3E2F3E09181282F4381628163
:102A70008CE0890F0E94B314089581E00E94321502
:102A80000895E3E2F3E09181282F4381628184EF8E
:102A9000890F0E94B314089581E00E9441150895A2
:102AA000E3E2F3E062812CE0620F08F46FEF282F7D
:102AB000438181810E94B314089581E00E945015E2
:102AC0000895E3E2F3E062812CE0621B08F460E029
:102AD000282F438181810E94B314089581E00E94D0
:102AE00061150895E3E2F3E043812CE0420F08F41E
:102AF0004FEF282F628181810E94B314089581E0F5
:102B00000E9472150895E3E2F3E043812CE0421B3A
:102B100008F440E0282F628181810E94B314089557
:102B200081E00E948315089520E00E94B314089567
:102B3000EF92FF921F93CF93DF93EC0110E0EE240E
:102B4000EA94F12C60910F01161770F00E94FE13A9
:102B50009A818C8190FF27C08F5F8C83DF91CF910A
:102B60001F91FF90EF90089520910D01422F410F8A
:102B70005527551FCA019A01220F331F280F391FED
:102B8000255D3C4F70E0C7010E941528962F8C816F
:102B90004091260360912503199F800D11240E9406
:102BA0002C131F5FCFCF8150D8CFB0E0A0E0EBED6A
:102BB000F5E10C948A28FC0182810FEF80FF01E08F
:102BC00010E04AE0A42E80910F01181798F00E949F
:102BD000FE138091BA02013009F04FC0811102C08A
:102BE00080910F0181508093BA02CDB7DEB7EAE041
:102BF0000C94A628C0910D01C12ED12CCC0DDD2D39
:102C0000D11DCE01880F991FC80FD91FC55DDC4F9C
:102C1000198218821A8234E0E32EF12CB12C8091B3
:102C2000BA028B0D8B301CF16A2D0E94F327892F7D
:102C3000082E000C990BC816D90691F48091260332
:102C40008E9DA0018F9D500D11245595479555954A
:102C500047959E0160912503809124030E942C13C7
:102C6000B00EF1E0EF1AF108D1F61F5FACCF87FF8D
:102C7000DFCF90910F01890FDBCF90E0019660913B
:102C80000F0170E00E941528AECF0F931F93CF93D2
:102C9000DF9380910D0190910E0123E0829FF0015E
:102CA0001124E55DFC4F891740F1C0E0D3E060914D
:102CB0000F01C61740F10E94FE1320910901809177
:102CC000B902820F8093B90290910A01920F9093FA
:102CD0000A01191654F4082E000C990B40910F01AB
:102CE0004150550B841795071CF02195209309013D
:102CF000DF91CF911F910F9108951182108212825E
:102D00008F5F3396D0CF0C2F10E070E0C8010E9487
:102D1000152820910D01820F482F50E02091B90213
:102D2000022E000C330B02171307BCF020910A018E
:102D3000022E000C330B201731077CF08D9F900181
:102D40001124255D3C4F409126036091250380911D
:102D500024030E942C13CF5FAACFFA01EE0FFF1FAE
:102D6000E40FF51FE55DFC4F118210821282F3CF54
:102D7000B0E0A0E0EEEBF6E10C948828EC014C8189
:102D8000042F10E09801D8010E9459289B01AC0142
:102D90000E946F284B015C01E0E2F0E0E01BF10BC8
:102DA000A5E5B0E0AC019B010E946F286B017C019E
:102DB0009F01DF010E9451289B01AC010E947A28EB
:102DC0009B01AC01280D391D4A1D5B1DC701B601D1
:102DD0000E942928F22E822F90E039E23F1520F13F
:102DE00043E0249F9001112435952795122F1095CB
:102DF00000E085E5E82EEF1880910F01081718F123
:102E00000E94FE139C8181E0992319F0903219F4FD
:102E10008FEF8093080180910801890F8C83CDB7D3
:102E2000DEB7ECE00C94A42825E530E0B901681B7E
:102E3000790B9B01220F331F260F371F37FFD4CF8B
:102E40002F5F3F4FD1CF8E2D01FD8F2D20910D0192
:102E5000622F600F7727771F9B01220F331F260FEA
:102E6000371F255D3C4F412F609125030E942C1395
:102E70000F5FC2CF0F931F93CF93DF93EC0110E04E
:102E800000E090910F019017110609F06CF40E9478
:102E9000FE138C8190E00196817099278C83DF91DD
:102EA000CF911F910F91089520910D01A801420F1C
:102EB000511D9A01220F331F240F351F255D3C4FF2
:102EC0004C816091250380912403969590171106FB
:102ED00051F04CF0442349F0409126030E942C13FA
:102EE0000F5F1F4FCECF4423B9F340E0F7CFB0E0E0
:102EF000A0E0EDE7F7E10C948428FC0162804480B7
:102F000081E08483E9EDF1E07490E8E5F2E0E4919A
:102F1000C0912603C695C158D0E0CC0FDD1FCD2F40
:102F2000DD27812C75E0972EAA24AA94B12C552474
:102F30005A94E719EE2EF12C80910F01881638F083
:102F40000E94FE13CDB7DEB7E0E10C94A028C82C98
:102F5000D12C82E0861568F09C9CF0019D9CF00DC0
:102F60001124E554FD4F8091240380838091250333
:102F70008183411023C09C9CF0019D9CF00D112485
:102F8000E554FD4F1382128220910D01C601820F7C
:102F9000911D9C01220F331F280F391F255D3C4FC7
:102FA0009C9CF0019D9CF00D1124E554FD4F428145
:102FB000618180810E942C138394BECF9C9C8001F0
:102FC0009D9C100D112405541D4FF8018381882309
:102FD000F1F081508383859DC0011124648170E0EC
:102FE0000E940128FB01FF27E752FE4F8491E82F42
:102FF000E719E59DC0011124B7010E9401288091C5
:103000002603689FB0011124F8017283BDCF0E948E
:103010003B29B5010E9415288C179D070CF0B4CFF1
:10302000F2E0F61598F40E943B29B5010E9415289C
:10303000F80180830E943B29209125032695622F69
:1030400070E00E941528280FF80121839C9CF00154
:103050009D9CF00D1124E554FD4F128280912603B2
:10306000893C58F088EC9C9CF0019D9CF00D11244B
:10307000E554FD4F8483838387CF8431A0F784E1B7
:10308000F2CFE3E2F3E020812E7F20833181428181
:10309000538164817581868197810E947B13109290
:1030A000F5020E94FE1308956091230366956695CC
:1030B00070E04BE050E080E191E00E944B29892BC9
:1030C00019F481E08093F5020E94D8209093EE02DB
:1030D0008093ED0208959091230390FF34C0937084
:1030E000811132C0946090932303662391F0209164
:1030F00023033091240340912503509126036091CE
:103100002703709128038091290390912A030E943C
:103110007B13609123036695669570E04BE050E069
:1031200080E191E00E944B29892BB1F01092F502C9
:1031300081E08093F0024091260360912503809105
:1031400024030E94941508958B3210F0986ACBCF17
:10315000880F880F982BC7CF0E945418E9CF682F8B
:10316000909123039695969581E0890F8B3208F014
:1031700081E00E946B18089581E00E94AF180895C5
:10318000682F90912303969596958FEF890F09F4F8
:103190008AE20E946B18089581E00E94C018089589
:1031A00061E00E946B180895E3E2F3E080818160A2
:1031B0008083869586950E94D01808958091230378
:1031C00080FF03C00E94411808950E94D4180895FA
:1031D00060E00E946B1808958091F30281113CC059
:1031E0000E94491320932303309324034093250323
:1031F0005093260360932703709328038093290339
:1032000090932A032C7FA1F40E94A1130E944913DA
:1032100020932303309324034093250350932603E4
:1032200060932703709328038093290390932A03C4
:103230000E943A131092F502E091D601F091D70165
:1032400009958091230380FF04C0869586950E948E
:10325000E81881E08093F30208950F931F93CF93B2
:10326000DF938091F5028823C1F18091F402E0910F
:103270002303E695E695E81BE093EF02823091F593
:10328000F0E0EB52FE4FE491CE2FD0E006E514E1E2
:103290008091F002882361F01092F0020E94D82001
:1032A0009093EE028093ED021092F2021092F102DE
:1032B0000E94D820E091ED02F091EE028E1B9F0B50
:1032C0008F3F9F4750F4EC0FFD1FF093EE02E09309
:1032D000ED028DEE92E0F8010995DF91CF911F91FB
:1032E0000F910895863049F4F0E0EE52FE4FE491DC
:1032F000CE2FD0E00AE614E1CBCF893051F4E69529
:10330000F0E0E153FE4FE491CE2FD0E008E915E163
:10331000BFCF8F3051F4E695F0E0E453FE4FE491D7
:10332000CE2FD0E005ED15E1B3CF853149F4F0E0C3
:10333000E753FE4FE491CE2FD0E005E416E1A8CF8D
:10334000C8E2D0E008EB16E1883109F4A1CF83325E
:1033500039F4E7ECF1E0C591D4910AE714E198CF94
:10336000C4EFD1E00AE317E1843209F491CFC0ED54
:10337000D7E008E213E1853209F08ACF8E2F63E0AF
:103380000E94E727E92FF0E0EC53FE4FE491CE2FA7
:10339000D0E007E717E17CCF08950E942D1908952A
:1033A000FA01811101C0FB0109950895CF93DF93C4
:1033B000C82FD62F0E94B5138C1748F00E94B51362
:1033C0008D1728F40E94BC18DF91CF9108958C2F9F
:1033D0000E94D018F9CF1F93CF93DF93EC01FB012C
:1033E0001581111110C00E94110C8272FE01E05271
:1033F000F847E531F10508F05EC0ED50F64D0C944C
:103400004B280E94DE18812FDF91CF911F910895E4
:103410004CEC58E16CEB78E10E94D019F4CF4CEB06
:1034200058E16CEC78E1F8CF4CE455E16DE375E1DF
:10343000F3CF4DE355E16CE475E1EECF4EE655E197
:103440006DE575E1E9CF4DE555E16EE675E1E4CF57
:1034500040E955E16FE775E1DFCF4FE755E160E9FE
:1034600075E1DACF4AEF53E16AED73E1D5CF4AED6A
:1034700053E16AEF73E1D0CF81E00E94D018C3CF4F
:1034800065E082E00E94D619BECF68E086E0FACF00
:103490006EE089E0F7CF64E18FE0F4CF67E185E18A
:1034A000F1CF88E1EACF62E289E1ECCF83E2E5CFB8
:1034B0006AE285E2E7CF11E0A6CF86E090E00E94C5
:1034C0006E290895682F86E090E00E949229089561
:1034D00085E3809349030E94621A08950E945D1A51
:1034E0008093490382FF0E94681A809149038833C0
:1034F00020F0877080638093490390914903892F5E
:10350000817090FF04C0892F8695869586950E94CC
:103510006F1B089580914903982F969596959695DF
:10352000963040F49F5F990F990F990F8770892B00
:1035300080934903809149038160809349030E94ED
:10354000621A809149038695869586950E946F1B25
:10355000089580914903982F987F79F0885080933F
:103560004903887F91E009F490E08091490390FB42
:1035700080F9809349030E94621A809149038695DD
:10358000869586950E946F1B08958091490380FD62
:1035900013C0816080934903813019F489E08093DE
:1035A0004903809149030E94621A809149038695DC
:1035B000869586950E946F1B08958091490380FF30
:1035C00008C08E7F809349030E94621A80E00E94A7
:1035D0006F1B08958091490380FF03C00E94DD1A8C
:1035E00008950E94C51A089590914903892F8695E0
:1035F000869586958F5F8F7197708730E0F4880F7E
:10360000880F880F892B8093490380914903887F15
:1036100091E009F490E08091490390FB80F9809358
:1036200049030E94621A8091490386958695869582
:103630000E946F1B089590934903E7CF873008F0ED
:1036400086E0909149039770282F220F220F220FB6
:10365000922B90934903987F21E009F420E0909108
:10366000490320FB90F9909349030E946F1B089532
:103670000E941E1B809149030E94621A08959C01BA
:10368000FB018581882349F12230F8E73F07F9F0F3
:1036900040F42115E8E73E0769F02130384779F01A
:1036A0000895243098E7390779F058F025303847E5
:1036B00089F0089586E00E94381B80E0089580E03C
:1036C000FACF0E94A91AF9CF0E948A1AF6CF0E9457
:1036D000EA1AF3CF0E94F41AF0CF81E008958F9296
:1036E0009F92AF92BF92EF92FF920F931F93CF934F
:1036F000DF938730B0F5811135C090918000977FBE
:1037000090938000A0918600B0918700282F30E030
:103710000E94592826E030E040E050E00E9429282D
:1037200089019A0180918600909187006CE070E099
:103730000E94012860177107C8F0C80169E070E0B5
:103740000E94012870938D0060938C00DF91CF91CF
:103750001F910F91FF90EF90BF90AF909F908F902F
:10376000089586E0909180009860CACF809186008D
:1037700090918700E0908600F0908700E0918600AD
:10378000F0918700C6E0D0E0BE010E940128060F3C
:10379000171F211D311D4801590185E0880C991C16
:1037A000AA1CBB1C8A95D1F7C701BE010E94012843
:1037B0009F0150E040E0260F371F411D511DC501FC
:1037C000B4010E94292849015A01E0918600F09134
:1037D0008700CA01B9010E94D7279B01AC01DF0114
:1037E0000E946F289B01AC01C501B4010E94D7273C
:1037F0002FE096958795779567952A95D1F7009153
:1038000086001091870030E020E006171707280790
:10381000390708F097CF609186007091870092CFAA
:103820000895279A2F988AE08093800089E18093F9
:1038300081008FEF9FEF90938700809386000E9416
:103840006E1A0895879A089541B34F7751B350681F
:10385000EFB7F8949B01220F331F260F371F280F55
:10386000391F2817390741F4EFBF8FE594E001971E
:10387000F1F700C000000895DC016D91CD0178E002
:1038800051BB000000C067FF41BB660F000000C0D5
:1038900000C000C041BB00C07A9591F7E2CF0E9402
:1038A000330D089580E00E940811817008950E94F0
:1038B000E4112FEF86E791E0215080409040E1F73E
:1038C00000C000000E94E4110E94521C882321F0D5
:1038D0000E944F1C0E94232108950E94571C0895A6
:1038E000EBEFE80FEF3308F066C0F0E0E85FF54D6E
:1038F0000C944B280E94D50D81E008958091B4026C
:10390000807F8093B40281E08093F60208950E9444
:103910005B03F2CF9091B402892F8E7F90FF81607C
:103920008093B40280FDE8CF817F8093B402E4CF1E
:103930009091B402892F8D7F91FF82608093B402B1
:1039400081FFDACF8091B4028160EFCF9091B40211
:10395000892F8B7F92FF84608093B40282FDF2CF27
:10396000CBCF9091B402892F877F93FF886080939B
:10397000B40283FDE7CFC0CF0E94950790910D035D
:10398000892F97FB87F9805880930D03B5CF81E08D
:1039900090E00E94E2070E949507AECF895321E094
:1039A00030E0A90102C0440F551F8A95E2F7CA0111
:1039B000F0CF8D51F4CF80E0089580E008950E940B
:1039C000DD1C0895CF93C82F8091F602882331F033
:1039D000813099F01092F60280E00DC00E94110C27
:1039E0008232D1F78C2F0E94DD1C811116C08C2FE2
:1039F0000E94701C8170CF9108950E94110C823238
:103A000089F38C2F0E94DF1C811105C0C43171F035
:103A100038F4CB3079F781E0EDCF81E090E0EACF68
:103A2000C93221F0C833B9F380E0E4CF1092F60236
:103A3000FBCFCF93DF93EB0186319C4711F50E94BA
:103A4000110C9D81992399F08A7A91E009F490E014
:103A50009093F702811109C089E20E94EA1F0E9437
:103A6000C50C80E0DF91CF91089585E3F6CF80917A
:103A7000F702811104C089E20E940120F0CF85E3A2
:103A8000FBCF81E0EFCFCF93DF93EC01FB0185818A
:103A9000882309F4D2C09E0130572332310508F043
:103AA000B2C00E944F0D90930E0380930D03FE0150
:103AB000E150F047E232F10520F4E95BF54D0C945A
:103AC0004B2880910D03816080930D0393C08091FA
:103AD0000E03886080930E038DC080910D03826079
:103AE000F3CF80910D038460EFCF80910D03886048
:103AF000EBCF80910E038160EDCF80910E03826049
:103B0000E9CF80910D038061DFCF80910D0380624A
:103B1000DBCF80910D038064D7CF0E949507809101
:103B20000D038068D1CF80910D038C60CDCF809143
:103B30000E038360CFCF80910D038E7FC5CF809120
:103B40000E03877FC7CF80910D038D7FBDCF8091FE
:103B50000D038B7FB9CF80910D03877FB5CF809107
:103B60000E038E7FB7CF80910E038D7FB3CF8091F0
:103B70000D038F7EA9CF80910D038F7DA5CF8091FE
:103B80000D038F7BA1CF0E94950780910D038F7746
:103B90009BCF80910D03837F97CF80910E038C7F05
:103BA00099CF80910D0382FB992790F921E092270C
:103BB00090FB82F990FB83F987CF80910E03982FB9
:103BC000909591708E7F892B90FB81F983CF909196
:103BD0000D03892F8F7B96FF806476CF0E94950717
:103BE00090910D03892F97FB87F980586DCF81E065
:103BF0000E94D80D80910D0390910E030E94540DE8
:103C00000E94950780E0DF91CF91089580E0F0CF8A
:103C100090910D03892F8F7E94FF806155CF9091F5
:103C20000D03892F8E7F90FF81604ECF90910E0300
:103C3000892F877F93FF88604DCF81E0E4CF0F937A
:103C40001F93CF93DF93C42FD22FFC01858188234C
:103C5000C9F04093FA020E94D8209093F902809311
:103C6000F80280E28C0F883040F4C77081E001C018
:103C7000880FCA95EAF70E944B05DF91CF911F91FB
:103C80000F9108951091FA02141332C08091F80236
:103C90009091F9020E94F020883C910548F5C0E21D
:103CA000CD0F1D17B9F080E2810F883040F41770F6
:103CB00081E001C0880F1A95EAF70E945205C830CA
:103CC00048F481E09D2F977001C0880F9A95EAF71C
:103CD0000E944B05802F0E944205C83070F6D770B5
:103CE00081E001C0880FDA95EAF70E945205C5CF3E
:103CF00080E28C0F883008F6C77081E001C0880F21
:103D0000CA95EAF7F2CF0F93DB0188519C478730C1
:103D10009105A0F5FC01E759F54D0C944B2806E2FE
:103D200021EE41EE6AE17CE7CD010E941F1E80E09A
:103D30000F91089507E225EE45EE6BE17CE7F4CFA5
:103D400006E221EE40EE68E17CE7EECF07E225EEE9
:103D500044EE69E17CE7E8CF06E221EE42EE6CE159
:103D60007CE7E2CF07E225EE46EE6DE17CE7DCCFB3
:103D700008E221E045EE6EE17CE7D6CF15968C9106
:103D8000882319F01092FA02D3CF81E0D1CF90931B
:103D900000038093FF020895E091FF02F091000379
:103DA000309729F00190F081E02D0995089580E089
:103DB00008950E94CC1E0895E091FF02F091000347
:103DC000309721F00280F381E02D09950895E0916C
:103DD000FF02F0910003309739F026E0DC012C93CC
:103DE0000480F581E02D09950895A3E0B0E0EBEFA4
:103DF000FEE10C9492282091FD023091FE022817DA
:103E00003907A1F09093FE028093FD02E091FF023A
:103E1000F0910003309751F023E029839B838A833C
:103E20000084F185E02DCE01019609952396E2E00C
:103E30000C94AE28A3E0B0E0E0E2FFE10C949228FD
:103E40002091FB023091FC0228173907A1F09093D2
:103E5000FC028093FB02E091FF02F0910003309797
:103E600051F024E029839B838A830084F185E02D2F
:103E7000CE01019609952396E2E00C94AE2820919C
:103E80000601309107012E5F3F4F80912501882365
:103E900079F080910D0387FF0BC0209104013091D0
:103EA00005012E5F3F4F9EE180E0915018F4089588
:103EB00096E0FACFF90141919F014423B1F38F5F5E
:103EC000F4CF882321F190912501992311F190914C
:103ED0000D0397FF1EC0E82FE695E695E695EE31B7
:103EE000B0F42091040130910501E20FF32FF11D90
:103EF000228130E0877041E050E002C0440F551F3E
:103F00008A95E2F72423352381E0232B91F480E086
:103F100008952091060130910701F9013296285F3A
:103F20003F4F9191981721F0E217F307D1F7EFCFA8
:103F300081E008959C01FC0132969FEF80E0419161
:103F4000461751F09F3F19F4411101C0982F8F5F20
:103F50008630A9F79F3F09F40895290F311D97FD79
:103F60003A95F90162830895FC01329608962191F1
:103F7000261303C0DF0111971C92E817F907B9F760
:103F80000895E62FE695E695E695EE3168F4E80F9C
:103F9000F92FF11D677021E030E001C0220F6A9512
:103FA000EAF78281822B82830895E62FE695E695D3
:103FB000E695EE3170F4E80FF92FF11D677021E0FE
:103FC00030E001C0220F6A95EAF72095828128230C
:103FD00022830895682F80912501882359F08091CC
:103FE0000D0387FF07C080910401909105010E9495
:103FF000C11F089580910601909107010E949A1FA8
:104000000895682F80912501882359F080910D0330
:1040100087FF07C080910401909105010E94D51F80
:10402000089580910601909107010E94B41F0895A0
:1040300080912501882379F080910D0387FF0BC0C3
:10404000E0910401F091050132968EE1DF011D92AD
:104050008A95E9F70895E0910601F09107013296FB
:1040600086E0F4CF08950E9432200895811106C0A1
:1040700081E0809301030E943320089582E0F9CF0C
:1040800083E0809301030E94332008950E9436202C
:10409000089581E0809301030E94332008950E94D7
:1040A00049200895089508950E9453200895089581
:1040B00008950E9452200895CF930E9457200E9495
:1040C000E4110E945820C0E08C2F0E940811892B17
:1040D00031F4CF5FC530C1F780E0CF91089581E022
:1040E000FCCF85B7806885BF85B7806885BF089598
:1040F0001F921FB61F9211248F939F93AF93BF936C
:1041000080910203811113C080914A0390914B0367
:10411000A0914C03B0914D034196A11DB11D809318
:104120004A0390934B03A0934C03B0934D03BF916C
:10413000AF919F918F911F901FBE1F9018958091F6
:104140005203843031F10E94CF031092020388E1C0
:1041500090E020E40FB6F894A895809360000FBE1D
:104160002093600083B7817F846083BF83B78160C1
:1041700083BF7894889583B78E7F83BF0FB6F894FA
:10418000A895809160008861809360001092600023
:104190000FBE08950E9495070E94D703089582E0FC
:1041A00084BD93E095BD9AEF97BD80936E0008950E
:1041B0002FB7F89480914A0390914B03A0914C0340
:1041C000B0914D032FBF08952FB7F89460914A0323
:1041D00070914B0380914C0390914D032FBF089534
:1041E0009C014FB7F89480914A0390914B03A091A2
:1041F0004C03B0914D034FBF821B930B08957894ED
:104200001F921FB61F9211248F939F93AF93BF935A
:1042100080914A0390914B03A0914C03B0914D03C0
:104220000196A11DB11D80934A0390934B03A09367
:104230004C03B0934D03BF91AF919F918F911F900D
:104240001FBE1F90189581E08093E00080E280936C
:10425000D8001092C9008FE19EE40197F1F700C0E9
:10426000000087E090EBDC0180935B0390935C039C
:10427000A0935D03B0935E0388E19CE00FB6F894D1
:10428000A895809360000FBE90936000FFCF88E1F7
:104290009CE00FB6F894A895809360000FBE9093B1
:1042A0006000FFCF80910B03089508959B01BA0130
:1042B000909152039430E9F48F708093E9009FEF5E
:1042C0008091E800915085FD06C085ED8A95F1F753
:1042D00000009111F5CF8091E80085FF0AC050E001
:1042E00040E0C9010E9450238091E8008E778093BE
:1042F000E800089543E050E0BC0182E00E945621AE
:10430000089540E250E0BC0182E00E9456210895E9
:10431000CF93DF93EC0148E050E0BC0181E00E94C4
:10432000562188E0FE01A3E0B3E001900D928A954A
:10433000E1F7DF91CF91089580915103811109C078
:104340000E94E0240E943D258091E20084608093D9
:10435000E20008951092510308950E9449200895A3
:1043600060914E0381E0611101C080E00E94402015
:1043700008959091520381E0943009F080E06091BB
:104380004E030E944620089542E061EC81E00E94C5
:104390005C2442E261EC82E00E945C249091520332
:1043A00081E0943009F080E060914E030E94362055
:1043B000089580915403833009F461C030F4813052
:1043C000D1F1823009F49EC008958A3009F48AC080
:1043D0008B3009F46FC0893009F050C080915303CD
:1043E000813209F04BC08091570390915803029796
:1043F00008F044C08091E800877F8093E8008091B6
:10440000E80082FF37C09091F3008091F20002979C
:1044100031F48091F100813011F0863021F48091E7
:10442000F10080930B038091E8008B778093E80084
:104430000E94902423C080915303813AF9F4809123
:10444000E800877F8093E80080915703909158039C
:10445000892B61F468E083E093E070E00E949F2381
:104460008091E8008B778093E800089560E090E009
:1044700080E0F3CF809152038111C1CF08958091E4
:104480005303813AD9F78091570390915803892BB0
:10449000A9F78091E800877F8093E8008091E80089
:1044A00080FFFCCF809125018093F1008091E8008E
:1044B0008E77BCCF80915303813201F780915703EF
:1044C00090915803892BD1F68091E800877F8093E3
:1044D000E8000E94902480915503809325010E945A
:1044E0009507089580915303813241F68091E80049
:1044F000877F8093E8000E949024809156038093E8
:104500000C03089580915303813A09F0B7CF80914D
:10451000E800877F8093E8008091E80080FFFCCF6F
:1045200080910C03C1CF84B7877F84BF0FB6F89406
:10453000A89580916000886180936000109260006F
:104540000FBE80E890E00FB6F894809361009093DE
:1045500061000FBE0E944F2008950E94E0240E9437
:104560003D25E2EEF0E080818460808378940E94B3
:10457000BC2708958BE191E00E94C71E08958091A9
:104580005203853031F480915203853019F00E9436
:10459000CA2008950E949F200E945C20882399F3DE
:1045A00080915003882379F30E943A230E94950753
:1045B000EACF08959A014091590350915A030E94FD
:1045C000E2220895492F55274330510519F168F427
:1045D0004130510509F444C04230510509F445C049
:1045E00090E080E050E040E025C04132510549F1C3
:1045F00042325105A9F784E490E04EEC54E0611595
:104600007105C1F08DE690E041E654E0613071053E
:1046100089F0E6CF99278130910581F0009729F044
:104620000297F1F6EEEDF3E002C0E0E1F4E08491F0
:1046300090E0AF01F901518340830895E0EFF3E08A
:10464000F6CF89E090E046E254E06115710591F300
:1046500089E090E04FE354E06130710559F3C0CF39
:1046600082E190E04FE454E0E5CF8BE390E044E159
:1046700054E0E0CF80E189BD82E189BD09B400FE4C
:10468000FDCF8091D8008F7D8093D8008091E0008D
:1046900082608093E0008091E00081FDFCCF08956E
:1046A000AF92BF92CF92DF92FF920F931F93CF935F
:1046B000DF936C01EB018A010E94AF24F82E811177
:1046C00023C00115110539F0F80180819181C81BC3
:1046D000D90BC80ED91EB12CA12C2097A9F080911E
:1046E000E80085FD22C08091E8008E778093E80085
:1046F00001151105A1F0F80180819181A80EB91E64
:10470000B182A08285E0F82E8F2DDF91CF911F918D
:104710000F91FF90DF90CF90BF90AF9008950E94CF
:10472000AF248823D1F2F82EEFCFF60181916F01EB
:104730008093F1002197FFEFAF1ABF0ACECFFC01A3
:104740008091590390915A0386179707A0F061153D
:10475000710529F49091E8009E779093E80090E02D
:104760006115710551F4911108C08091E80082FF34
:1047700034C080E00895BC01F2CF809152038823B9
:10478000C1F18530C1F18091E80083FD30C0809196
:10479000E80082FDEACF8091E80080FFE1CF8091C0
:1047A000F3002091F200382F6115710519F02830BF
:1047B000310558F091E02830310509F090E0209162
:1047C000E8002E772093E800CBCF81918093F10011
:1047D000615071092F5F3F4FE7CF809152038823CB
:1047E00041F0853041F08091E80083FFBECF81E049
:1047F000089582E0089583E00895FC0180915903B3
:1048000090915A0386179707A0F06115710529F456
:104810008091E8008E778093E80090E06115710543
:1048200051F4911108C08091E80082FF35C080E00A
:104830000895BC01F2CF809152038823C9F18530DD
:10484000C9F18091E80083FD31C08091E80082FDCC
:10485000EACF8091E80080FFE1CF8091F3002091C2
:10486000F200382F6115710519F02830310558F024
:1048700091E02830310509F090E08091E8008E77D2
:104880008093E800CBCF84918093F1003196615002
:1048900071092F5F3F4FE6CF80915203882341F08B
:1048A000853041F08091E80083FFBDCF81E008951D
:1048B00082E0089583E00895982F973028F08F7054
:1048C0008093E90081E008959093E900242F762FEA
:1048D00050E0981731F07091EC002091ED0050916C
:1048E000F00021FD02C09F5FE8CF3091EB003E7FDA
:1048F0003093EB003091ED003D7F3093ED0030912F
:10490000EB0031603093EB007093EC002093ED00EE
:104910005093F0002091EE0027FDE5CF80E0089550
:104920008091530387FF13C08091E80082FF06C087
:104930008091E8008B778093E80004C08091520357
:104940008111F2CF0895809152038823D9F3809189
:10495000E80080FFF8CF8091E8008E77ECCF2091BF
:10496000E4003091E50095E6A9012091EC00822F4A
:10497000817020FF06C08091E80080FF06C080E0C3
:1049800008952091E80022FD1AC0809152038823E7
:1049900089F0853089F08091EB0085FD0FC0209172
:1049A000E4003091E50042175307F9F29150E1F627
:1049B00084E0089582E0089583E0089581E00895F9
:1049C0000E944F250E945725E0EEF0E08081816033
:1049D0008083E8EDF0E080818F77808319BCA7EDBC
:1049E000B0E08C918E7F8C9380818F7E808310923B
:1049F000510308950F931F93CF93DF930E944F2588
:104A00000E945725C8EDD0E088818F778883888100
:104A10008068888388818F7D888319BC10925203B7
:104A200010924E031092500310924F0300EE10E0CC
:104A3000F80180818B7F808388818160888342E058
:104A400060E080E00E945C24E1EEF0E080818E7FF7
:104A50008083E2EEF0E080818160808380818860E5
:104A60008083F80180818E7F808388818061888344
:104A7000DF91CF911F910F910895E8EDF0E08081D3
:104A80008F7E8083E7EDF0E080818160808384E029
:104A900082BF81E0809351030E94FA240895E8EDDB
:104AA000F0E080818E7F80831092E2000895109262
:104AB000DA001092E10008951F920F920FB60F9244
:104AC00011242F933F934F935F936F937F938F9313
:104AD0009F93AF93BF93EF93FF938091E10082FF89
:104AE0000BC08091E20082FF07C08091E1008B7FC4
:104AF0008093E1000E94BB278091DA0080FF19C0FB
:104B00008091D80080FF15C08091DA008E7F80935D
:104B1000DA008091D90080FF96C080E189BD82E1F2
:104B200089BD09B400FEFDCF81E0809352030E944D
:104B30009C218091E10080FF19C08091E20080FFFC
:104B400015C08091E2008E7F8093E2008091E200A8
:104B500080618093E2008091D80080628093D800C9
:104B600019BC85E0809352030E94B0218091E1003E
:104B700084FF2BC08091E20084FF27C080E189BDC3
:104B800082E189BD89B5982F917080FFFBCF80911C
:104B9000D8008F7D8093D8008091E1008F7E809334
:104BA000E1008091E2008F7E8093E2008091E2003C
:104BB00081608093E20080914E03882309F449C00C
:104BC00084E0809352030E94B9218091E10083FF29
:104BD00029C08091E20083FF25C08091E100877F9A
:104BE0008093E10082E08093520310924E03809103
:104BF000E1008E7F8093E1008091E2008E7F8093C0
:104C0000E2008091E20080618093E20042E060E097
:104C100080E00E945C248091F00088608093F00026
:104C20000E94AD21FF91EF91BF91AF919F918F9124
:104C30007F916F915F914F913F912F910F900FBE98
:104C40000F901F90189519BC109252030E94AA2130
:104C500070CF8091E30087FD93E090935203B3CF30
:104C60001F920F920FB60F9211242F933F934F93E1
:104C70005F936F937F938F939F93AF93BF93CF93E4
:104C8000DF93EF93FF93D091E900DF708091EC0008
:104C9000C82FC17080FDC0E81092E9008091F0003B
:104CA000877F8093F00078940E9474261092E90028
:104CB0008091F00088608093F000CD2BCF70C0937E
:104CC000E900FF91EF91DF91CF91BF91AF919F915B
:104CD0008F917F916F915F914F913F912F910F90A5
:104CE0000FBE0F901F901895AAE2B0E0EAE7F6E237
:104CF0000C94912883E593E02091F100FC0121932D
:104D0000CF01F3E08B359F07B9F70E94D92180913D
:104D1000E80083FF1EC180915303909154039A30A1
:104D200008F017C1E92FF0E0E059F54D0C944B283D
:104D3000803899F0823809F00CC1809157038F7048
:104D4000873008F006C18093E9008091EB0085FB75
:104D5000882780F91092E90006C080914F03909156
:104D60005003911182609091E800977F9093E80042
:104D70008093F1001092F1008091E8008E77E5C0F9
:104D8000882309F4D3C0823009F0E3C08091550331
:104D90008111D6C0809157038F702FEF280F2630D6
:104DA00008F0D7C08093E9002091EB0020FFC8C035
:104DB000933031F48091EB0080628093EB00C0C0AF
:104DC0009091EB0090619093EB0021E030E001C006
:104DD000220F8A95EAF72093EA001092EA00809168
:104DE000EB008860EACF8111B4C0109155031F77A2
:104DF0008091E3008078812B8093E3008091E8002C
:104E0000877F8093E8000E9490248091E80080FFD3
:104E1000FCCF8091E30080688093E30082E0111171
:104E200083E08093520395C08058823008F091C08F
:104E300080915503909156038C3D23E09207A1F594
:104E400083E08A838AE289834FB7F894DE01139660
:104E500020E03EE051E2E32FF0E050935700E49170
:104E600020FF03C0E295EF703F5FEF708E2F90E060
:104E7000EA30C0F0C7968D939D932F5F243159F788
:104E80004FBF8091E800877F8093E8006AE270E07E
:104E9000CE0101960E949F238091E8008B7780933A
:104EA000E80057C0C096E7CF609157037091580350
:104EB000AE014F5F5F4F0E94DA22BC01892B09F4DB
:104EC00048C09091E800977F9093E80089819A818B
:104ED0000E94FD23E1CF8038E1F58091E800877FD3
:104EE0008093E80080914E038093F10045CF8111BB
:104EF00030C090915503923060F58091E800877F33
:104F00008093E80090934E030E94902480914E037A
:104F1000882311F084E005C08091E30087FDFACF7B
:104F200081E0809352030E94C42113C080915503F5
:104F3000813079F481E0933009F080E08093500370
:104F40001092E9008091E800877F8093E8000E943A
:104F500090248091E80083FF0AC08091E800877F59
:104F60008093E8008091EB0080628093EB00AA962A
:104F7000E3E00C94AD280895CF93809152038823E9
:104F8000A1F0C091E900CF709091EC00892F817061
:104F900090FD80E8C82B1092E9008091E80083FD25
:104FA0000E947426CF70C093E900CF910895DB0171
:104FB0008F939F930E946F28BF91AF91A29F800D06
:104FC000911DA39F900DB29F900D11240895991BE0
:104FD00079E004C0991F961708F0961B881F7A95F0
:104FE000C9F78095089587FB082E062687FD8195D1
:104FF00067FD61950E94E7270EF4919507FC819566
:105000000895AA1BBB1B51E107C0AA1FBB1FA6170F
:10501000B70710F0A61BB70B881F991F5A95A9F761
:1050200080959095BC01CD01089597FB072E16F44D
:10503000009407D077FD09D00E94012807FC05D015
:105040003EF4909581959F4F0895709561957F4F9F
:105050000895A1E21A2EAA1BBB1BFD010DC0AA1FB9
:10506000BB1FEE1FFF1FA217B307E407F50720F0D1
:10507000A21BB30BE40BF50B661F771F881F991F4C
:105080001A9469F760957095809590959B01AC0195
:10509000BD01CF010895EE0FFF1F0590F491E02DA3
:1050A00009940E945928332312F48A1B9B0B0C94F9
:1050B0006A28A29FB001B39FC001A39F700D811DFC
:1050C0001124911DB29F700D811D1124911D089511
:1050D0000E945928B7FF0895821B930B08950E94E0
:1050E0005928A59F900DB49F900DA49F800D911DF0
:1050F00011240895B7FF0C946F280E946F28821B1B
:10510000930B08952F923F924F925F926F927F92EE
:105110008F929F92AF92BF92CF92DF92EF92FF92C7
:105120000F931F93CF93DF93CDB7DEB7CA1BDB0B73
:105130000FB6F894DEBF0FBECDBF09942A88398818
:1051400048885F846E847D848C849B84AA84B9841F
:10515000C884DF80EE80FD800C811B81AA81B9812B
:10516000CE0FD11D0FB6F894DEBF0FBECDBFED013F
:105170000895002E083090F0982F872F762F652FF6
:10518000542F432F322F22270850F4CF220F331FE2
:10519000441F551F661F771F881F991F0A95B2F776
:1051A000002D089597FD1094002E083098F00850B7
:1051B000232F342F452F562F672F782F892F912D8E
:1051C000F4CF15949795879577956795579547955B
:1051D000379527950A95AAF71124002D08958F92E7
:1051E0009F92AF92BF92CF92DF92EF92FF92CF93B6
:1051F000DF93EC01688179818A819B81611571055A
:105200008105910521F464E279ED8BE597E02DE1CC
:1052100033EF41E050E00E94C62949015A019B0149
:10522000AC01A7EAB1E40E946F286B017C01ACEEEF
:10523000B4EFA50194010E947D28DC01CB018C0D07
:105240009D1DAE1DBF1DB7FF03C00197A109B0484A
:1052500088839983AA83BB839F77DF91CF91FF9047
:10526000EF90DF90CF90BF90AF909F908F90089578
:105270000E94EF28089580E091E00E94EF280895B1
:10528000B0E0A0E08093000190930101A09302019F
:10529000B09303010895FC014150504030F001905B
:1052A0000616D1F73197CF010895882799270895D9
:1052B000FB01DC0104C08D910190801921F4415063
:1052C0005040C8F7881B990B0895FB01DC0102C010
:1052D00001900D9241505040D8F70895F999FECFB2
:1052E00092BD81BDF89A992780B50895A6E1B0E0F6
:1052F00044E050E00C94B829A8E1B0E042E050E06E
:105300000C94B829DC01A40FB51F4150504048F05F
:10531000CB01840F951F2E910E949329415050403C
:10532000D0F70895262FF999FECF92BD81BDF89A46
:10533000019700B4021639F01FBA20BD0FB6F894D9
:10534000FA9AF99A0FBE08950396272F0E9493297F
:105350000E949229252F0E949329242F0C9493298F
:105360000196272F0E9493290C949229DC01CB01EE
:10537000FC01F999FECF06C0F2BDE1BDF89A319665
:1053800000B40D9241505040B8F70895052E97FB98
:105390001EF400940E94DD2957FD07D00E942928A1
:1053A00007FC03D04EF40C94DD29509540953095C0
:1053B00021953F4F4F4F5F4F089590958095709581
:1053C00061957F4F8F4F9F4F0895F894FFCF9A05B7
:1053D0009A05EA05EA054F06C905C905C9056B0620
:1053E000DC06EB06EB06011A081A0F1A141A191A32
:1053F0001E1A231A281A2D1A321A371A3C1A401A62
:10540000451A481A4B1A4E1A511A531A561A581A54
:10541000871C7E1C8A1C7C1CDB1CDB1C7C1CDB1C94
:10542000DB1CA61CDB1CB11CBC1CDB1CDB1CDB1C42
:10543000DB1C7C1CDB1CDB1C7C1CDB1C981CDB1CB5
:10544000DB1CD91CD91CD91CD91CD91CD91CD91CB2
:10545000D91CD91CC71CDB1C871C7A1CDB1CDB1C61
:10546000DB1CDB1CDB1CDB1CDB1CDB1CDB1CDB1C84
:10547000C71CDB1CDB1C7C1CDB1CCE1CCE1CCE1C0E
:10548000CE1CCE1CCE1CCE1CCE1CCE1CC71C9B1D05
:105490000F1EA31D6D1D711DA71D751DAB1DB71D15
:1054A000811D081E851DBB1D891DBF1DE71D8D1D8E
:1054B000C31DEE1D931DC91DD11D791DAF1D7D1D81
:1054C000B31D971DCD1DDD1DF71D061E671D9F1DFC
:1054D000161EA01EA61E8F1E9A1EAC1EB21EB81E41
:1054E0009826C026A927C026A927F3261427A9276E
:0454F0006B27772788
:1054F4000100000076029602010102000A000A0A75
:1055040001191A1B1C1D1E1F2021225221882181D2
:105514002155217A2101E200E900EA00B500B60034
:10552400B700CD008301CC008A01920194012102CD
:10553400230224022502260227022A02B300B40011
:105544006F0070009F01CB019F02A002818283E261
:1055540000E900EA00B500B600B700CD008301CC35
:10556400008A0192019401210223022402250226C9
:105574000227022A02B300B4006F0070009F01CB1F
:10558400019F02A002818283F0F1C66766369431DE
:10559400323534979633909192939500010202022A
:1055A400020606060909090909090F0F0F0F0F0F53
:1055B400151515181919191919191919191923244F
:0A55C400252525252525221C241C81
:00000001FF
