:100000000C9486020C94BE020C94BE020C94BE02A8
:100010000C94BE020C94BE020C94BE020C94BE0260
:100020000C94BE020C94BE020C949F240C94732575
:100030000C94901F0C94BE020C94BE020C94BE0251
:100040000C94BE020C94BE020C94BE020C94BE0230
:100050000C94BE020C9417200C94BE020C94BE02A9
:100060000C94BE020C94BE020C94BE020C94BE0210
:100070000C94BE020C94BE020C94BE020C94BE0200
:100080000C94BE020C94BE020C94BE020C94BE02F0
:100090000C94BE020C94BE020C94BE020C94BE02E0
:1000A0000C94BE020C94BE020C94BE0229001E00E9
:1000B0001F0020002100220023002400250026002C
:1000C00027002D002E0031002B0014001A0008001C
:1000D000150017001C0018000C00120013002F0060
:1000E00030003500E00004001600070009000A0097
:1000F0000B000D000E000F003300340000002A003A
:10010000E10000001D001B000600190005001100A1
:100110001000360037003800E50028000000E2003B
:10012000E300000000002C000000000000000000C0
:100130000000E700E6000151A5003A003B003C004A
:100140003D003E003F0040004100420043004400AB
:10015000450049003900C35CC45CC55CCA5CCB5C2B
:1001600001000100460047004800520001004C0019
:100170000100AA00A900A800B00001005500540029
:100180004A004B0050004F00000001000100000039
:10019000BC00AE00BB0001000100570056004D003E
:1001A0004E00510001005800000001000100000055
:1001B000000001000000000000000000000001003D
:1001C0000100010000047F3F1F6432146432147880
:1001D0003C1E1E140A052223252628292A2C2D2FF1
:1001E0003032333536383A3B3D3E4042434547494D
:1001F0004A4C4E5051535557595A5C5E6062646682
:1002000068696B6D6F71737577797B7D7F8183858D
:1002100087898A8C8E90929496989A9C9E9FA1A38F
:10022000A5A7A8AAACAEAFB1B3B4B6B8B9BBBCBEB3
:10023000BFC1C2C3C5C6C7C9CACBCCCDCED0D1D22F
:10024000D2D3D4D5D6D7D7D8D9D9DADADBDBDBDC31
:10025000DCDCDCDCDDDDDDDDDCDCDCDCDCDBDBDBDD
:10026000DADAD9D9D8D7D7D6D5D4D3D2D2D1D0CE3D
:10027000CDCCCBCAC9C7C6C5C3C2C1BFBEBCBBB942
:10028000B8B6B4B3B1AFAEACAAA8A7A5A3A19F9EC0
:100290009C9A98969492908E8C8A89878583817F88
:1002A0007D7B79777573716F6D6B69686664626069
:1002B0005E5C5A5957555351504E4C4A4947454335
:1002C00042403E3D3B3A3836353332302F2D2C2AD2
:1002D000292826252322FFAA7F554000010101017C
:1002E00001010101010202020202020202020303F1
:1002F00003030303030304040404040404050505C1
:100300000505060606060607070707070808080882
:10031000090909090A0A0A0B0B0B0C0C0C0D0D0D2F
:100320000E0E0E0F0F0F10101111111212131314C5
:1003300014151516161717181819191A1A1B1B1C3D
:100340001D1D1E1E1F202021222223242425262697
:10035000272829292A2B2C2D2D2E2F3031323233CC
:100360003435363738393A3B3C3D3E3F40414243D5
:100370004445464748494A4C4D4E4F5051535455B9
:100380005658595A5B5D5E5F616264656668696B69
:100390006C6D6F7072737577787A7B7D7E808283E7
:1003A0008587888A8C8E8F91939596989A9C9EA02B
:1003B000A2A3A5A7A9ABADAFB1B3B5B7BABCBEC038
:1003C000C2C4C6C9CBCDCFD1D4D6D8DBDDDFE2E401
:1003D000E7E9EBEEF0F3F5F8FAFDFF100354006FD8
:1003E000006B0079006F003600300000001E0354DF
:1003F000006F006B0079006F0020004B00650079F2
:100400000062006F006100720064000000040309D4
:100410000409023B00020100A032090400000103AC
:10042000010100092111010001224000070581039B
:100430000800010904010001030000000921110165
:100440000001226D00070582032000011201000255
:10045000000000083654606001000102000105013F
:100460000980A101850319012AB700150126B700EB
:10047000950175108100C0050C0901A101850419C1
:10048000012AA002150126A002950175108100C065
:1004900005010906A1018506050719E029E71500F0
:1004A00025019508750181020507190029EF15003E
:1004B000250195F0750181020508190129059505A9
:1004C00075019102950175039101C005010906A10D
:1004D00001050719E029E715002501950875018137
:1004E000029501750881010507190029FF150026ED
:1004F000FF00950675088100050819012905950575
:1005000075019102950175039101C00011241FBE70
:10051000CFEFDAE0DEBFCDBF04B603FE18C0809196
:10052000100390911103A0911203B091130387302F
:10053000904BA740B04B59F4109210031092110346
:100540001092120310921303E0E0F8E3099511E012
:10055000A0E0B1E0EAE6F1E502C005900D92AC3B07
:10056000B107D9F723E0ACEBB1E001C01D92A03197
:10057000B207E1F70E9479120C945E280C940000F7
:1005800081E0089581E008950E94C20208950895CF
:100590000E94C7020895A5E0B0E0E1EDF2E00C94FE
:1005A000C82749835A833091BF0189819A813111CB
:1005B00019C0662399F0222389F00E943E09182F62
:1005C000682F89819A810E941A0969817A81812F15
:1005D0000E94BE0F2596E3E00C94E4270E942C09AC
:1005E000182FF3CF0E943E0969817A81F1CFFC0177
:1005F000262F408151816281738184810E94CB02C8
:10060000089581E00895CF93DF93EC0160E00E94AC
:10061000F702BE010E94C802DF91CF9108950E94A7
:10062000FA1008950E94FE10089508950E94690727
:100630000E9415032FEF84E39CE0215080409040FE
:10064000E1F700C0000008950E9416030E943B20BD
:1006500008950E9416030E945F2008950F931F9330
:10066000CF93DF938C0161E00E94F702EC01B801A7
:100670000E94C402811106C080E0DF91CF911F91DA
:100680000F910895B801CE010E94401A8823A1F36A
:10069000B801CE010E94D91D882371F3B801CE01A3
:1006A0000E94591B882341F3B801CE010E944B1DC3
:1006B000882311F3B801CE010E9490188823E1F23B
:1006C000F8018281882361F0CB35FDE5DF0701F178
:1006D00058F4C115ECE5DE0791F0CF3DDC4591F013
:1006E000C8010E94C002C9CFCD358DE5D80769F099
:1006F00090F0C83ADD45A1F70E942903BDCF0E94C2
:100700002403BACF0E94040EF7CF0E943E0DE8CF1B
:100710000E94480DE5CF0E944C0DE2CF0E946C1F55
:1007200080E00E94751A0E94B00308950E946C191F
:100730000E94B4030E94711F089508950E949D03B2
:10074000089581E008950E94A10308950895CF932C
:10075000C82F0E949E038C2F0E94A303CF9108955F
:1007600080E00E94A70308950E94351E0E94A703FF
:1007700008950E94351E9091BE01981721F0809334
:10078000BE010E94A7030895ABE0B0E0EAECF3E0FD
:100790000C94C9274F83588769877A878B876111A3
:1007A0000E94890C1E821D8285E0FE013796DE01C3
:1007B000119601900D928A95E1F78C819D81892B8C
:1007C00061F449815A816B817C818D819E810E9477
:1007D000B20B2B96E2E00C94E52789819A8189235C
:1007E0008F3F79F3CE0101960E9401038111E9CF79
:1007F000F0CFFC01808191810E9478090895CF9308
:10080000C82F8823C9F08238C9F40E94351E81FDA3
:1008100013C089E30E94410C0E94AA0C2FEF81EEC5
:1008200094E0215080409040E1F700C0000089E34F
:100830000E94490C0E94AA0CCF9108958338A1F41C
:100840000E94351E80FDF8CF83E50E94410C0E9476
:10085000AA0C2FEF81EE94E0215080409040E1F708
:1008600000C0000083E5E4CF8438A1F40E94351E67
:1008700082FDE2CF87E40E94410C0E94AA0C2FEF78
:1008800081EE94E0215080409040E1F700C00000EC
:1008900087E4CECF8CEF8C0F813AB8F48C2F0E9476
:1008A000141D8111C9CF6C2F80910001909101011D
:1008B0000E949C1E882329F08C2F0E94490C0E94C4
:1008C000AA0C8C2F0E94410CB5CF80E28C0F88308F
:1008D00048F4C77081E001C0880FCA95EAF70E940A
:1008E0006C0CA8CFEBE5EC0FE33040F4F0E0E05BFC
:1008F000FE4F808190E00E945C1E9ECFC85AC73197
:1009000008F09ACFEC2FF0E0EE0FFF1FEE5DFE4FE8
:10091000808191810E94721E8FCF882309F44DC07F
:10092000823879F40E94351E81FF47C089E30E9416
:10093000410C0E94AA0C89E30E94490C0E94AA0C57
:100940000895833859F40E94351E80FF36C083E530
:100950000E94410C0E94AA0C83E5EECF843859F422
:100960000E94351E82FF29C087E40E94410C0E942C
:10097000AA0C87E4E1CF9CEF980F913AE8F290E25D
:10098000980F983050F4877091E001C0990F8A95C4
:10099000EAF7892F0E94720CD1CF9BE5980F933014
:1009A00028F490E080E00E945C1E0895885A873108
:1009B00020F490E080E00E94721E08951F93CF9370
:1009C000DF93182FEB010E94FF03209739F4812F4A
:1009D0000E948D04DF91CF911F9108958FE99FE0D0
:1009E0000197F1F700C000002197EFCF70E060E0C1
:1009F000893311F460E570E00E94DE0408958823D5
:100A000021F00E946C0C0E94AA0C0895882321F00A
:100A10000E94720C0E94AA0C0895B0E0A0E0E3E1ED
:100A2000F5E00C94C2276C01D62FC72FFC01128170
:100A3000F580F2949FE0F9220E94620CE82E882350
:100A4000B9F0E12E1123A1F08C2F807F803421F0AA
:100A500080E28D0F8830D0F08091C60282FF16C0F0
:100A600082E00E940D0D0E94620C91E0E82EE926C2
:100A7000BC2EB2948FE0B822FBE0FB1508F468C0EE
:100A8000EB2DF0E0E05AF74D0C948227E12CF0CFEB
:100A90000C2F0F70C07F11F00295007F112399F089
:100AA000002359F080E28D0F883010F0D11107C07B
:100AB000802F0E946C0C0E94AA0C8D2F41C0802FA9
:100AC0000E947C0CF8CF8D2F0E948D04002309F426
:100AD0003FC080E28D0F883010F0D11104C0802F0C
:100AE0000E94720C03C0802F0E94820C0E94AA0CEC
:100AF0002FC00C2F0F70C07FC03211F00295007F05
:100B0000DD2381F0D13009F463C0112309F46DC0F5
:100B1000FF2009F463C0F601858180FFCECF8F707E
:100B200085835CC08091C60282FD33C0112359F0D9
:100B3000002329F0802F0E946C0C0E94AA0C80E0F8
:100B40000E94FF0305C080E00E948D040111C7CF01
:100B5000EB2DE850FF0B349720F40E94351E0E94C5
:100B6000A703EE2089F00E945E0C80FD0DC0F60107
:100B700012820E94580C0E942208C6010E942D0772
:100B80000E94580C0E944408CDB7DEB7E9E00C94EF
:100B9000DE27112389F0F11006C00E948C0C802BF7
:100BA0000E94FF04D5CF21E0F212F7CF0E948C0CF7
:100BB000802B0E94930CCCCFF11006C00E94A00C99
:100BC000802F0E940605C4CF31E0F31609F2F6CF5C
:100BD000112331F085E08F1508F4BACF802FE0CFD4
:100BE00094E09F1508F4B4CFEBCFFF2049F3D9333D
:100BF00049F4FFEF27EE33E0F15020403040E1F7B9
:100C000000C000008D2F0E948D04A2CF8C2F8695EE
:100C10008695837069F0813009F09ACF8D2F9C2FD3
:100C20009370111102C090E080E00E94721E90CF7C
:100C30008D2F9C2F9370111102C090E080E00E94D4
:100C40005C1E86CF8C2F837009F041C0111180CFBC
:100C50004D2F429546954770440F440F0D2F0F704E
:100C600010E030E020E0042E04C0000F111F221F0E
:100C7000331F0A94D2F760E070E0CB01D4FF0FC0BD
:100C80006FE070E080E090E004C0660F771F881F7F
:100C9000991F4A95D2F76095709580959095C69565
:100CA000C695C370602B712B822B932BC23049F0F9
:100CB00058F4C13019F00E94CD074ACF0E94BA07FC
:100CC00047CF0E94E00744CF0E94B70741CF8695E7
:100CD000112311F08C2F8170882309F439CF4D2F07
:100CE000429546954770440F440F0D2F0F7010E04A
:100CF00030E020E0042E04C0000F111F221F331F1C
:100D00000A94D2F760E070E0CB01D4FF0FC06FE02F
:100D100070E080E090E004C0660F771F881F991F85
:100D20004A95D2F76095709580959095C695C69531
:100D3000C370602B712B822B932BC23049F058F477
:100D4000C13019F00E949D0803CF0E948A0800CF8D
:100D50000E94B008FDCE0E94F907FACECF70112391
:100D600029F08C2F0E9422088D2F1ACF8D2F0E94E0
:100D700006058C2F0E944408EBCED23F51F160F45F
:100D8000D03FB9F0D13F81F0112309F449C0F110EF
:100D900094CE8C2F8F7121C0D33F11F1D43FA1F796
:100DA0008091C60282FD26C08C2F8F71112311F312
:100DB00014C0112349F084E08F1508F4C9CE8C2F9C
:100DC0008F710E946808C4CE95E09F1508F4C0CECC
:100DD000F6CF8C2F8F711111CDCF0E942208B8CE83
:100DE000112329F08C2F8F710E940C08B1CE0E9424
:100DF0000608AECE112349F0CF718C2F0E94220835
:100E000063E08C2F0E94EF0CA3CE81E00E940D0DB9
:100E1000E1E0EF1508F09CCE82E00E940D0D98CE27
:100E2000F110E5CE8C2F8F71A5CF0F931F93CF9329
:100E3000DF93EC01688179818A810E9483098C01AA
:100E40000E94C3080E94B607B801CE010E940D059A
:100E5000DF91CF911F910F910895CF93DF93EC0114
:100E60008B819C81892B29F08881998189238F3FEF
:100E700051F4DF91CF910895CE010E941507CE0164
:100E80000E940303F6CFCE010E942E038111F4CFFE
:100E90000E94620C882369F38A81882351F3809130
:100EA000C60282FFE6CF82E00E940D0DE2CF90E005
:100EB00080E00E945C1E90E080E00E94721E0E9412
:100EC000890C0E94AA0C08950E94510C0E94570799
:100ED00008950E94790C0E946407089592959F706E
:100EE000963091F058F4925F9F70923058F4803FA2
:100EF00019F030F4883E30F481E008959A5FF4CF21
:100F0000843FD1F380E00895883EB0F3813FD1F76C
:100F1000F3CFFC01808191810E9478090E946E07C5
:100F20000895A5E0B0E0E7E9F7E00C94C92725961D
:100F3000E2E00C94E527A6E0B0E0E1EAF7E00C94EB
:100F4000C9272696E2E00C94E52708950E94A5079C
:100F500008950E94A6076093F1017093F2018093B7
:100F6000F3019093F4010E945707089508950E9499
:100F7000A90708950F931F930091F1011091F201B9
:100F80002091F3013091F401602B712B822B932B74
:100F90000E94A9071F910F9108950F931F9300912D
:100FA000F1011091F2012091F3013091F4016023DD
:100FB0007123822393230E94A9071F910F91089503
:100FC0000F931F930091F1011091F2012091F30111
:100FD0003091F40160277127822793270E94A90787
:100FE0001F910F9108950E94A50708950E94F3078D
:100FF00008950E94F6076093ED017093EE018093CF
:10100000EF019093F0010E945707089560E070E0AF
:10101000CB010E94F90708950F931F9341E050E020
:1010200060E070E08A019B0104C0000F111F221FC5
:10103000331F8A95D2F7C901B8010E94F9071F91A1
:101040000F9108950F931F9341E050E060E070E02E
:1010500004C0440F551F661F771F8A95D2F78091F1
:10106000ED019091EE01A091EF01B091F0018A01A4
:101070009B01082B192B2A2B3B2BC901B8010E947D
:10108000F9071F910F9108950F931F9341E050E0CE
:1010900060E070E004C0440F551F661F771F8A95FB
:1010A000D2F7CB01BA01609570958095909500912B
:1010B000ED011091EE012091EF013091F0016023DC
:1010C0007123822393230E94F9071F910F910895A2
:1010D0000F931F9341E050E060E070E004C0440FC4
:1010E000551F661F771F8A95D2F78091ED01909169
:1010F000EE01A091EF01B091F0018A019B01082758
:1011000019272A273B27C901B8010E94F9071F9117
:101110000F9108950F931F930091ED011091EE012F
:101120002091EF013091F001602B712B822B932BDA
:101130000E94F9071F910F9108950F931F9300913B
:10114000ED011091EE012091EF013091F00160234B
:101150007123822393230E94F9071F910F91089511
:101160000F931F930091ED011091EE012091EF017B
:101170003091F00160277127822793270E94F90799
:101180001F910F9108950895262F277091E001C0B7
:10119000990F2A95EAF723E0769567952A95E1F766
:1011A00025E0269FF001279FF00D1124E40FF51F85
:1011B00050E040E0682F70E08191DF0111979B01C2
:1011C000042E02C0369527950A94E2F721702195E6
:1011D0002827292328272C934F5F5F4F453051053F
:1011E00059F70895A82FA77023E0969587952A951B
:1011F000E1F725E0289FF001299FF00D1124E60F6B
:10120000F71F50E040E080E0219130E00A2E02C05C
:10121000369527950A94E2F721703327042E01C0F2
:10122000220F0A94EAF7822B4F5F5F4F453051053A
:1012300059F70895262F953070F48E3060F4682F9A
:1012400070E08EE0989F600D711D112440EC51E01C
:10125000822F0E94C4080895292F953068F48E309B
:1012600058F490E060EC71E03EE0239F800D911D0A
:1012700011240E94F208089580E00895B0E0A0E0F3
:10128000E4E4F9E00C94C2278C01C090ED01D09009
:10129000EE01E090EF01F090F0018091F10190916A
:1012A000F201A091F301B091F401C82AD92AEA2AE7
:1012B000FB2ACFE1D0E0BC2ED701C6010C2E04C022
:1012C000B695A795979587950A94D2F780FD09C0A2
:1012D000219788F7B12C8B2DCDB7DEB7E9E00C94C0
:1012E000DE27B8018C2F0E94D90F019789F3F3CF25
:1012F000CF93DF93EC010E943E09BE010E94D90FFB
:10130000DF91CF9108951F93CF93DF93EB019091DD
:10131000BF01992339F0CB010E947809DF91CF9169
:101320001F910895882369F0CB010E943E09182F70
:10133000682FCE010E941A09BE01812F0E94D90F89
:10134000EDCFCB010E942C09182FF6CF1F93CF931E
:10135000DF93C091F50116E08091F6018C1304C073
:10136000DF91CF911F910895D0E01C9FF0011D9F48
:10137000F00D1124E950FE4F40815181628173814B
:10138000848195810E949B072196C770E5CF40918B
:101390002702509128026091290270912A028091BF
:1013A0002B0290912C020E949B0708951F93CF93CC
:1013B000DF9380912C02807F09F049C0809129023F
:1013C000882309F444C08091F501C091F601609131
:1013D000270270912802A0912A02B0912B02D62FE9
:1013E000D72316E0C81799F190E0109711F0DF3F6E
:1013F00019F401968770F6CF189F9001199F300D50
:101400001124F901E950FE4F41814713F2CF408189
:101410004613EFCF42814111ECCF438154814A1BE7
:101420005B0B483C510528F780912C028F7080613E
:1014300080932C02F901E450FE4F80818F7080610F
:10144000808387E292E00E942D070E94A609DF9127
:10145000CF911F910895A1E1B0E0E1E3FAE00C948F
:10146000C1278C0185E0F801DE011D9601900D92E7
:101470008A95E1F7F801E28087E2C82E82E0D82E53
:1014800060912A0270912B026115710509F44EC119
:101490009091270220912802892F82238F3F09F4FF
:1014A00045C140815181A380B480F0902902F501AB
:1014B000E61BF70BFF2009F4EAC080912C02382FBD
:1014C000307FE83CF10508F0A3C031116DC0FE2C5F
:1014D000251316C0941314C0E11012C08F708061E0
:1014E00080932C020E94C709C6010E942D0780919B
:1014F0002C02F80185838F2D6196EAE00C94DD279C
:10150000A114B10429F0842F85238F3F09F027C14E
:1015100080E0F82FF170DF2E80FF3CC08091F50154
:101520002091F60136E0821315C04D875E878D85C8
:101530009E850E947809292F22952F702230F0F085
:10154000243018F59F70F1F0F8019581907FD1F467
:10155000D12C1EC090E0389FF001399FF00D11246E
:10156000E950FE4F6181651306C06081641303C0BA
:101570006281E6120FC001968770D5CF9F7011F07F
:10158000882331F3805E883018F3C8010E942D074C
:10159000FD2CB1CFEE2009F4AECF80912C028160FA
:1015A00080932C02F12CA7CF251306C0941304C0FE
:1015B000F801EE2009F487C0C8010E94890788233A
:1015C00019F1EE2009F180912C02803270F0209107
:1015D00027023091280238872F831986BB86AA8676
:1015E0008C87CE0107960E942D0786E0F801A7E2BE
:1015F000B2E001900D928A95E1F70E94D6090E940F
:10160000C709FF24F39477CFC8010E942D07F9CFB3
:10161000311113C07A2DB98AA88A6E2D89890E944A
:10162000910787E292E00E942D0786E0F601119271
:101630008A95E9F70E94C709B5CF25130FC0941307
:101640000DC0E1100BC0F8018583C8010E942D0771
:1016500086E0F60111928A95E9F74DCFC8010E9404
:101660008907882389F2EE2079F280912C0280325A
:1016700008F4BBCF20912702309128023A832983B6
:101680001B82BD82AC828E83CE010196ACCFE83C3A
:10169000F10508F03EC0FE2CEE2009F4B5CF25136D
:1016A0002AC0941328C080912C0280FD1BC0982F63
:1016B000907FC1F0F8018583903F31F0982F907FA3
:1016C000905F8F70892B8583C8010E942D0786E06B
:1016D000F801A7E2B2E001900D928A95E1F70E942D
:1016E000C70909CF86E0F801A7E2B2E001900D92A8
:1016F0008A95E1F700CFC8010E948907811175CF53
:1017000080912C02816080932C02C8010E942D07D9
:10171000F2CE7A2DB98AA88A6E2D89890E94910706
:1017200086E0F60111928A95E9F7D9CFEE2009F407
:101730006BCFC8010E948907F82E882309F464CF73
:1017400086E0F801A7E2B2E001900D928A95E1F7F8
:1017500087E292E00E94F9030E94D609C0CF81E09F
:101760008E25D7CEACE0B0E0E8EBFBE00C94C827C8
:101770004F83588769877A878B879C87CE01079626
:101780000E942B0A882369F08A859B85892B39F072
:101790004F815885842F85238F3F09F06BC016E059
:1017A0005FC086E0FE013796DE01119601900D9232
:1017B0008A95E1F78A859B85892B89F388859F81A6
:1017C00089238F3F61F32091F60130E0C901019632
:1017D000877099274091F5014817190671F40E9406
:1017E00069071092F6011092F50186E0E7E2F2E057
:1017F000DF011D928A95E9F7D2CF96E0929FD00142
:10180000939FB00D1124A950BE4FFE013196019057
:101810000D929A95E1F78093F6010E94A609BFCF39
:10182000819FC001112489509E4F0E942B0A88235A
:10183000E9F0E091F5011E9FF0011124E950FE4FFF
:101840004081518162817381848195810E949B07CF
:101850008091F50190E00196877099278093F501BA
:101860008091F5019091F6018913DACF2C96E3E08F
:101870000C94E42769857A858B859C850E949B075B
:101880008ECF682F80910001909101010E941C1F52
:101890000895682F80910001909101010E942A1FF4
:1018A000089580910001909101010E94381F0895D0
:1018B00080914D02859585958595089580914D027D
:1018C0008770089590914D02977081E009F480E04F
:1018D000089580917002089590917002892B8093F1
:1018E00070020895809590917002982390937002F1
:1018F000089510927002089590916F02892B809341
:101900006F020895809590916F02982390936F02D3
:10191000089510926F02089580914E0208950895DF
:101920000E948F0C08959091C60292FF08C090917A
:101930004E02981721F080934E020E94900C089559
:1019400080914E02882329F010924E0280E00E947E
:10195000900C0895CF93DF93E0910001F091010185
:10196000809170028083E0910001F09101018081FB
:1019700090916F02892B808390914E02992381F080
:10198000E0910001F09101018081892B8083809199
:101990000001909101010E94881E81110E94A00CFB
:1019A000C0910001D091010140E250E06DE272E08F
:1019B000CE010E940928892B59F080E2FE01ADE298
:1019C000B2E001900D928A95E1F7CE010E94421E8D
:1019D000DF91CF91089508950E94EB0C08959091A6
:1019E000C60292FF11C098E0899F90011124622BDA
:1019F00060934D020E94220880914D028595859545
:101A000085950E94EC0C08950E942208089510927A
:101A10004D0280E00E94EC0C089590914D0280955B
:101A2000892380934D02282F277091F4282F082EA8
:101A3000000C330B9217130659F09091C60292FFD7
:101A400007C08595859585950E9444080E94070DDD
:101A500008959091C60292FB222720F9281769F079
:101A600080FB92F99093C6028091C5029091C602C4
:101A70000E947A0D82E00E940D0D08958091C602A9
:101A800082FB882780F991E089270E94290D08951B
:101A900081E00E94290D089580E00E94290D08959B
:101AA0006FEF7FEF90E080E00E944828089590E07B
:101AB00080E00E94242821E0883E9E4F09F020E02B
:101AC000822F089582E090E00E941628089583E016
:101AD00090E00E9416280895CF9384E090E00E9441
:101AE0001628C82F82E290E00E941628982F8C2F8B
:101AF000CF910895CF93C92F682F84E090E00E9482
:101B00002A286C2F82E290E00E942A28CF91089523
:101B1000AB01BC018FE090E00E943C280895AB012E
:101B2000BC0183E190E00E943C28089560E070E0F1
:101B3000CB010E948F0D089560E070E0CB010E9400
:101B4000880D0E94960D089568EE7EEF90E080E08B
:101B50000E94482860E082E090E00E942A2860E02D
:101B600083E090E00E942A281092F1011092F20185
:101B70001092F3011092F40160E084E090E00E9482
:101B80002A2864E082E290E00E942A2860E085E052
:101B900090E00E942A2860E086E090E00E942A28D7
:101BA0006FEF87E090E00E942A2840E050E0BA0101
:101BB00088E090E00E943C2860E08DE090E00E9488
:101BC0002A2840E050E0BA0188E190E00E943C28D9
:101BD00060E087E190E00E942A2840E050E0BA01EE
:101BE0008CE190E00E943C2870E060E080E290E0B0
:101BF0000E94482840E050E0BA0188E190E00E944D
:101C00003C280E949C0D08950E94A40D0895682F01
:101C10008EE090E00E942A2808950E94FC1F6093A5
:101C20007F0270938002809381029093820260937E
:101C30007B0270937C0280937D0290937E020895D4
:101C4000089508950E94210E089508950E94250E7A
:101C5000089588EB90E10E942B1E0E94200E0E94A6
:101C6000220E089581E008950E94320E089508958D
:101C700008950E94370E0E94380E08950E94D410D5
:101C80000E94A6030E941C1B08950E94E71F0E9449
:101C9000C7110E943E0E0E946C190E94B4170E9448
:101CA000260E0895AAE0B0E0E8E5FEE00C94BC271B
:101CB0000E94DD11A82E81110E940D0E31E7832EA6
:101CC00032E0932E10E000E0502E802F0E94011190
:101CD0006C01F401619071904F016816790609F466
:101CE00043C08091830281FD0E940A11B12CEE2431
:101CF000E394F12C6C247D24C3018E219F21892B38
:101D000069F10E94340E8823B1F0BE825F82CE203A
:101D1000DF2081E0C114D10409F480E088870E94AB
:101D2000F01F8160782F9A8789874E815F8168854F
:101D30008A850E94C403000F111FF801EF58FD4F60
:101D400080819181E826F926F182E08281E0A1106C
:101D500001C080E02A96EFE00C94D827B394EE0CF3
:101D6000FF1CFEE0BF12C8CF0F5F1F4F05301105EB
:101D700009F0AACF8FEF89838A831B820E94F01F0C
:101D80008160782F9D838C8349815A816B818D81FD
:101D90000E94C403DBCF0E94520E0E94E7170E94EC
:101DA0001B1B0E94B9030895CF93DF930E94DE0F9F
:101DB000EC01811522E59207E8F5811531E59307DD
:101DC00008F0ACC0883E910510F5803E910570F595
:101DD000883A910570F4853A910508F078C0813011
:101DE000910521F1009711F1049700F5D0E0C0E0D2
:101DF0001DC08F3B9105D0F7C85AD0E0CC0FDD1F36
:101E0000CD5ADE4F0990D881C02DD4640FC0811502
:101E100040E5940708F066C0C11580E4D80708F0D3
:101E20005EC0CE019A9581159F4100F7CE01DF91EA
:101E3000CF910895811536E5930718F5811545E58D
:101E4000940708F083C0C11584E5D80708F079C06D
:101E50009C2F969596959E0123703327C115D345E7
:101E600008F461C0C1E0D0E002C0CC0FDD1F2A95AC
:101E7000E2F730E2939FC0011124C82BD92BDA6816
:101E8000D5CFC1158AE5D80778F4C11599E5D907EA
:101E900008F066C0C11528E5D20708F4A7CFDC2FEB
:101EA000CC27C06FD06AC2CFCE0190568115904228
:101EB00008F09CCF8D2F8F710E94751090E0982FA5
:101EC000882788279F719C012C2BE90147C0C55AA0
:101ED000D0E0CF57DE4FC881D0E0D064A7CFDF700D
:101EE000D06AA4CFE4E096958795EA95E1F78370F0
:101EF0002C2F26952695237040E2249F90011124D3
:101F0000382B8C2F8370C1E0D0E002C0CC0FDD1FD6
:101F10008A95E2F7C22BD32BDC6888CFD82FCC2749
:101F2000C16FD06A83CFC1E0D0E002C0CC0FDD1F0B
:101F30002A95E2F720E2929FC0011124C82BD92BE9
:101F4000EBCFDC2FCC27C46FD06A70CF0E94751006
:101F5000C82FD0E0DC2FCC27CC27DF71D06266CF32
:101F60008C2F8F700E94751034E0D695C7953A95E6
:101F7000E1F7CF709C2FEC01D06958CF972F7530C7
:101F8000A8F46E3098F470E02EE0929F600D711D01
:101F90001124FB0196E4899FE00DF11D1124EE0F41
:101FA000FF1FE455FF4F85919491089580E090E0E4
:101FB00008950E94BE0F0E94D40E089582389105A4
:101FC000B1F1B0F48133910509F475C048F4893258
:101FD000910509F469C08A32910509F473C0089526
:101FE0008533910509F459C08933910501F10895AC
:101FF000833E9105A9F138F4803E9105F9F0823EC7
:10200000910549F10895863E9105A9F1873E910514
:10201000C9F1843E910519F52091C60221FF1FC028
:102020008091C50284FD14C087EE90E00895209150
:10203000C5022370A1F080EE90E008952091C502C2
:1020400020FD47C03091C60230FF09C024FF44C0C4
:1020500090E080E004C02091C50222FDF7CF0895F2
:102060002091C50222FD3BC03091C60230FDE3CF76
:1020700024FFF5CFEDCF2091C50223FFF0CF24FD43
:10208000E7CFD2CF2091C50223FD2CC03091C602EC
:1020900031FFEECF84EE90E008952091C50225FF38
:1020A000DECF89E290E008952091C50225FFD7CFC9
:1020B00085E390E008952091C50226FFD0CF8AE203
:1020C00090E008952091C50226FFC9CF81E390E0FA
:1020D000089589E390E0089583EE90E0089582EEFC
:1020E00090E0089586EE90E008959091C50292FFE9
:1020F00006C0282F28712830F9F4877F846093FF69
:1021000006C0282F28712831F1F4877E8461209140
:10211000C60220FF06C0382F38713830D9F4877FC7
:10212000816021FF06C0282F28712831D1F4877ED5
:10213000816194FD877E0895282F24712430F9F65B
:102140008B7F8860DCCF282F2471243101F78B7EB0
:102150008861DDCF382F3171313019F78E7F88607B
:10216000E0CF282F2171213121F78E7E8861E1CFC8
:1021700080E008950E94500D08950E94DD118FE3C4
:102180009CE90197F1F700C000000E94DD1180E09A
:102190000E94011180FF04C00E94BA100E943B20DF
:1021A00008950E94BD1008950E94570D811102C02C
:1021B0000E94040E0E94620D809383020E946C0DA7
:1021C0009093C6028093C5020E94D1100E94670DB1
:1021D000682F70E090E080E00E94B7076091ED0109
:1021E0007091EE018091EF019091F0010E94F6074D
:1021F000089508950E94F910089508950E94FD1011
:102200000895E82FF0E0EE0FFF1FEF52FD4F8081A1
:1022100091810895089580EA8A95F1F7089500C0A4
:1022200008950E940B110895F894E82FE295EF703D
:10223000F0E031A1282F2F7081E090E001C0880FDD
:102240002A95EAF7982F9095932391A392A1892B31
:1022500082A3789408950F931F93CF93DF93C4E8DC
:10226000D1E089918F3F11F00E94141181E0C239B1
:10227000D807B9F7C2E9D1E007E911E089918F3FAA
:1022800011F00E9414110C171D07C1F7DF91CF91B7
:102290001F910F9108958F929F92BF92CF92DF92DC
:1022A000EF92FF920F931F93CF93DF93D82EE92ED7
:1022B000F62E8A01C62FD0E0CC57DE4F28812F3F63
:1022C00009F453C0F894E22FE295EF70F0E031A1E9
:1022D0002F7081E090E001C0880F2A95EAF7932FD4
:1022E000982B91A392A18095892382A378940E9430
:1022F0000F1182E9882E81E0982EED2DFE2DBF0171
:10230000665F7F4FE12C6801C094D094D401BD90EA
:102310004D0181919191AF0142505109BFEFBB1620
:1023200081F12B2D22952F7030E0D90190962C91C0
:1023300030E0BB2DBF7002C035952795BA95E2F706
:1023400020FD1FC0802B912BDA018D939C93EE24EE
:10235000E3946E177F07D1F688818F3F11F00E94BA
:1023600014116E2D8F2D0E941111DF91CF911F91AD
:102370000F91FF90EF90DF90CF90BF909F908F9044
:1023800008958C219D21DA018D939C93E2CF0E94C8
:102390002B118AE0E1EDF2E0DF01982F1D929A9572
:1023A000E9F7E7ECF2E0DF011D928A95E9F785E0B5
:1023B0000E9432120E940F030895CF92DF92FF9283
:1023C0000F931F93CF93DF93CDB7DEB72A970FB646
:1023D000F894DEBF0FBECDBF8E010F5F1F4F8AE0A6
:1023E000F80111928A95E9F7F12CCC24C394D12CF1
:1023F000A6016F2DC8010E944B11F394CC0CDD1C7B
:10240000FEE0FF12F5CF4AE050E0B80187EC92E021
:102410000E940928FF24F394009709F4F12C892BDA
:1024200041F08AE0F801A7ECB2E001900D928A95A4
:10243000E1F72F2D45E061ED72E087EC92E00E941C
:1024400033120E9412038F2D2A960FB6F894DEBF26
:102450000FBECDBFDF91CF911F910F91FF90DF9005
:10246000CF9008950895FF920F931F93CF93DF931A
:10247000F82E092F162FD72FC42F222349F081E0E1
:10248000809386020E94F01F9093850280938402BD
:10249000809186028823A1F0809184029091850228
:1024A0000E940820059760F0EF2DF02FA12FBD2F7F
:1024B00090E080E0D0E08C179D073CF010928602FF
:1024C000CDB7DEB7E5E00C94E227219131912D9351
:1024D0003D930196F0CF0E94F5210E94450E0E9487
:1024E000022208950E9407220E94CB0E0E94212200
:1024F00008950E94891F0E94DB210E94290E0E94DC
:102500006B120E9472120E94390EFBCFEF92FF9263
:102510000F931F93CF93DF93EB01E82FD1110EC0E0
:10252000442321F0F0E0E552FD4FE4916E2F7E2F21
:102530008E2FCDB7DEB7E6E00C94E1270D2F10E02B
:10254000282F30E0442329F025523D4FF9012491F2
:1025500030E0F6E0CF9FC0011124EFEFF0E0BF01C3
:102560000E943827AB018C2F90E0880F991FA5E5BA
:10257000A49FB001A59F700D1124861B970B982F67
:10258000990F980FBF01601B710B629FD001639F71
:10259000B00D729FB00D11248B2F9D9FB00111249F
:1025A000672F7727EF01C61BD70BBE01629FE001A3
:1025B000639FD00D729FD00D11247F01E91AF1089D
:1025C000E09EB001E19E700DF09E700D1124672F0A
:1025D0007727E61BF70BE29F8001E39F100DF29F28
:1025E000100D1124E12F722F4230510599F048F45B
:1025F0004115510569F04130510581F0EB2F8D2FC8
:1026000007C04430510569F080F046305105B1F7FC
:102610006E2F8FCFE22F7B2F812FFACFE22F7D2FCE
:10262000F7CFEB2F822F712FF3CF7B2F822FED2F40
:10263000EFCF41E00E948612089508950E94191379
:102640000895CF93DF93762FE901682F842F0E949E
:102650001E13798368838A83DF91CF9108958091D7
:10266000DB02982F9E7F29F4817082608093DB02C9
:1026700008958A34E8F381708864F8CF88E090E0A8
:102680000E941E280895CF92DF92EF92FF926B0175
:102690007C010E942F13B701A60188E090E00E9400
:1026A0003C28FF90EF90DF90CF900895EBEDF2E0A3
:1026B00083E0808311828FEF828383831482608121
:1026C0007181828193810E94431308958091DB027E
:1026D00080FF02C08695089580E008959091DF0202
:1026E000933018F49F5F9093DF02882351F060913C
:1026F000DB027091DC028091DD029091DE020E948B
:102700004313089581E00E946E1308959091DF02B3
:10271000992319F091509093DF02882351F0609132
:10272000DB027091DC028091DD029091DE020E945A
:102730004313089581E00E948613089570E00E947B
:102740002D1B0895609106018091DB0280FF0BC074
:102750008091050123E0829FC001112480529D4F8A
:102760000E949E130895809107019091080123E033
:10277000829FF0011124E052FD4F891748F7118222
:10278000108212828F5F3396F8CF9091DB0290FF18
:102790000EC0909107012091080133E0939FF00152
:1027A0001124E052FD4F921718F00E94A2130895D1
:1027B0008183608342839F5F3396F5CFA3E0B0E0CF
:1027C000E4EEF3E10C94C9279091DB0290FF0AC07C
:1027D0009E012F5F3F4F0E9421134B8169818A81A7
:1027E0000E94C5132396E2E00C94E527CF93DF9374
:1027F000EC01EC81F0E0EA52FE4F4491EBEDF2E0A7
:10280000628181810E94DE138C818F5F8C83DF91D6
:10281000CF910895CF93DF93EC01EBEDF2E043818C
:1028200062818C810E94DE138C818F5F8C83DF91AB
:10283000CF910895A3E0B0E0E0E2F4E10C94C72763
:102840008C018091870281110AC09E012F5F3F4F4A
:102850004FEF6FEF0E9421138A8180938702F80166
:102860006481613069F08091870240E0662361F005
:1028700040E0623011F44091870280E060E004C0E3
:102880006091870240E080E00E94C513F8018481D6
:1028900090E0019663E070E00E944C2784832396C9
:1028A000E4E00C94E327A3E0B0E0E9E5F4E10C9464
:1028B000C227082FD62EE42EC22E9091DB0290FF65
:1028C00029C0E92FE695AE2FB0E0A956BE4F8C91F6
:1028D000809391029E7F923009F59E012F5F3F4FBA
:1028E000802F0E9421134B8169818A810E94C51328
:1028F0000093DC02D092DD02E092DE02CC2051F0A7
:102900006091DB027091DC028091DD029091DE0229
:102910000E9443132396E9E00C94DE27823019F4D9
:10292000E090DE02E5CF863019F40091DC02E0CFC2
:102930008930D9F38931E1F6E9516E2F6170B62EF5
:10294000E695F0E0EA52FD4F1491F12C60910901F7
:10295000F61618F00E94A213CBCFF19EC0011124ED
:1029600070E00E943827802FB11014C0860F20918C
:102970000701622F6F0D7727771F9B01220F331FEF
:10298000260F371F20523D4F4E2D6D2D0E942113D3
:10299000F394DCCF861BEBCFEBEDF2E09181282F97
:1029A000438162818CE0890F0E945314089581E075
:1029B0000E94CC140895EBEDF2E09181282F438121
:1029C000628184EF890F0E945314089581E00E9470
:1029D000DB140895EBEDF2E062812CE0620F08F465
:1029E0006FEF282F438181810E945314089581E065
:1029F0000E94EA140895EBEDF2E062812CE0621B84
:102A000008F460E0282F438181810E9453140895C7
:102A100081E00E94FB140895EBEDF2E043812CE08D
:102A2000420F08F44FEF282F628181810E945314D6
:102A3000089581E00E940C150895EBEDF2E04381CA
:102A40002CE0421B08F440E0282F628181810E9423
:102A50005314089581E00E941D15089520E00E94FE
:102A600053140895EF92FF921F93CF93DF93EC01DD
:102A700010E0EE24EA94F12C60910901161770F031
:102A80000E94A2139A818C8190FF27C08F5F8C8354
:102A9000DF91CF911F91FF90EF9008952091070152
:102AA000422F410F5527551FCA019A01220F331F8C
:102AB000280F391F20523D4F70E0C7010E944C275C
:102AC000962F8C814091DE026091DD02199F800D6E
:102AD00011240E9421131F5FCFCF8150D8CFB0E0C7
:102AE000A0E0E5E7F5E10C94C127FC0182810FEF3E
:102AF00080FF01E010E04AE0A42E80910901181740
:102B000098F00E94A21380918902013009F04FC011
:102B1000811102C080910901815080938902CDB753
:102B2000DEB7EAE00C94DD27C0910701C12ED12C5D
:102B3000CC0DDD2DD11DCE01880F991FC80FD91FD7
:102B4000C052DD4F198218821A8234E0E32EF12C34
:102B5000B12C809189028B0D8B301CF16A2D0E9463
:102B60002A27892F082E000C990BC816D90691F434
:102B70008091DE028E9DA0018F9D500D11245595F0
:102B80004795559547959E016091DD028091DC0245
:102B90000E942113B00EF1E0EF1AF108D1F61F5F89
:102BA000ACCF87FFDFCF90910901890FDBCF90E099
:102BB00001966091090170E00E944C27AECF0F93FF
:102BC0001F93CF93DF93809107019091080123E039
:102BD000829FF0011124E052FD4F891740F1C0E0BF
:102BE000D3E060910901C61740F10E94A213209121
:102BF000030180918802820F8093880290910401E2
:102C0000920F90930401191654F4082E000C990B9E
:102C1000409109014150550B841795071CF02195EF
:102C200020930301DF91CF911F910F91089511829D
:102C3000108212828F5F3396D0CF0C2F10E070E09D
:102C4000C8010E944C2720910701820F482F50E0B5
:102C500020918802022E000C330B02171307BCF0E0
:102C600020910401022E000C330B201731077CF059
:102C70008D9F9001112420523D4F4091DE026091C2
:102C8000DD028091DC020E942113CF5FAACFFA01FE
:102C9000EE0FFF1FE40FF51FE052FD4F118210826F
:102CA0001282F3CFB0E0A0E0E8E5F6E10C94BF2794
:102CB000EC014C81042F10E09801D8010E9490276C
:102CC0009B01AC010E94A6274B015C01E0E2F0E011
:102CD000E01BF10BA5E5B0E0AC019B010E94A6272B
:102CE0006B017C019F01DF010E9488279B01AC01E1
:102CF0000E94B1279B01AC01280D391D4A1D5B1DA7
:102D0000C701B6010E946027F22E822F90E039E2BF
:102D10003F1520F143E0249F90011124359527951C
:102D2000122F109500E085E5E82EEF18809109013B
:102D3000081718F10E94A2139C8181E0992319F0D1
:102D4000903219F48FEF8093020180910201890F74
:102D50008C83CDB7DEB7ECE00C94DB2725E530E0C3
:102D6000B901681B790B9B01220F331F260F371FF8
:102D700037FFD4CF2F5F3F4FD1CF8E2D01FD8F2D49
:102D800020910701622F600F7727771F9B01220F89
:102D9000331F260F371F20523D4F412F6091DD0218
:102DA0000E9421130F5FC2CF0F931F93CF93DF9326
:102DB000EC0110E000E0909109019017110609F074
:102DC0006CF40E94A2138C8190E001968170992787
:102DD0008C83DF91CF911F910F910895209107016E
:102DE000A801420F511D9A01220F331F240F351FD6
:102DF00020523D4F4C816091DD028091DC0296951E
:102E00009017110651F04CF0442349F04091DE0236
:102E10000E9421130F5F1F4FCECF4423B9F340E030
:102E2000F7CFEBEDF2E080818E7F8083608171814E
:102E3000828193810E944313109292022FEF80E7C8
:102E400092E0215080409040E1F700C000000E94D5
:102E5000A21308956091DB02669570E04BE050E0AC
:102E60008AE091E00E94FC27892B19F481E080938D
:102E700092020E94F01F90938B0280938A02089521
:102E80009091DB0290FF2BC09170811129C092605C
:102E90009093DB02662351F06091DB027091DC02BB
:102EA0008091DD029091DE020E9443136091DB026B
:102EB000669570E04BE050E08AE091E00E94FC27CC
:102EC000892BA9F01092920281E080938D024091AB
:102ED000DE026091DD028091DC020E942E150895D1
:102EE000853210F09864D4CF880F982BD1CF0E94F0
:102EF0002A17EACF682F9091DB02969581E0890F1F
:102F0000853208F081E00E944017089581E00E9418
:102F10007A170895682F9091DB0296958FEF890FAD
:102F200009F484E20E944017089581E00E948A1704
:102F3000089561E00E9440170895EBEDF2E0808172
:102F40008160808386950E94991708958091DB02A5
:102F500080FF03C00E94111708950E949D170895D5
:102F600060E00E94401708958091900281112EC068
:102F70000E94570D811104C00E94040E0E94561336
:102F80000E943E136093DB027093DC028093DD02AB
:102F90009093DE026E7F61F40E9456130E943E13EE
:102FA0006093DB027093DC028093DD029093DE027B
:102FB0000E942F13109292028091DB0280FF03C0C7
:102FC00086950E94B01781E08093900208950F9338
:102FD0001F93CF93DF93809192028823B9F1809160
:102FE0009102E091DB02E695E81BE0938C028230CF
:102FF00091F5F0E0EE52FE4FE491CE2FD0E006EFD7
:1030000013E180918D02882361F010928D020E945D
:10301000F01F90938B0280938A0210928F0210927D
:103020008E020E94F01FE0918A02F0918B028E1BAB
:103030009F0B8F3F9F4750F4EC0FFD1FF0938B02C7
:10304000E0938A028AE892E0F8010995DF91CF9136
:103050001F910F910895863049F4F0E0E153FE4F3F
:10306000E491CE2FD0E00AE014E1CBCF893051F4C7
:10307000E695F0E0E453FE4FE491CE2FD0E002E37A
:1030800015E1BFCF8F3051F4E695F0E0E753FE4FE6
:10309000E491CE2FD0E00FE615E1B3CF853149F4AE
:1030A000F0E0EA53FE4FE491CE2FD0E00FED15E1B2
:1030B000A8CFC8E2D0E002E516E1883109F4A1CF3B
:1030C000833239F4E4ECF1E0C591D4910AE114E1E2
:1030D00098CFC4EFD1E004ED16E1843209F491CF2A
:1030E000C0EDD7E00DE113E18CCFFA01811101C0F1
:1030F000FB0109950895CF93DF93C82FD62F0E9427
:1031000066138C1748F00E9466138D1728F40E94EE
:103110008617DF91CF9108958C2F0E949917F9CFD0
:103120001F93CF93DF93EC01FB01128111117EC03D
:103130000E94690C8272CD3CFCE5DF0709F49CC05B
:1031400008F041C0C73CECE5DE0709F481C0D8F4C3
:10315000C43C9CE5D90709F471C030F4C33CDC459C
:1031600009F469C011E062C0C53C9CE5D90709F4C7
:103170006AC046EE54E167ED74E1C63CDC4591F768
:103180000E94751853C0CA3CFCE5DF0709F46AC009
:1031900068F4C83CECE5DE0709F45FC047EF54E192
:1031A00068E075E1C93CDC4559F3DCCFCB3C9CE5DC
:1031B000D90709F45CC04AE953E162E873E1CC3C09
:1031C000DC45F1F2CFCFC23DFCE5DF0709F465C075
:1031D00098F4CF3C9CE5D90709F457C008F451C0D6
:1031E000C03DFCE5DF0709F455C0C13DDC4509F0F1
:1031F000B9CF6EE089E04BC0C53D9CE5D90709F425
:1032000052C058F4C33DFCE5DF0709F449C0C43D92
:10321000DC4509F0A7CF88E135C0C63D9CE5D9075C
:1032200009F444C0CE35DD4509F09CCF812FDF91F4
:10323000CF911F9108950E94A617F8CF45E957E155
:1032400066E877E19DCF46E857E165E977E198CFF9
:1032500047ED54E166EE74E193CF48E055E167EF46
:1032600074E18ECF4AE255E169E175E189CF49E128
:1032700055E16AE275E184CF42E853E16AE973E11E
:103280007FCF81E00E949917D1CF65E082E00E9454
:103290007B18CCCF68E086E0FACF64E18FE0F7CF0F
:1032A00067E185E1F4CF62E289E1F1CF83E2EACF21
:1032B00086E090E00E9416280895682F86E090E04E
:1032C0000E942A280895EEEFF2E0808184708163E5
:1032D00080830E945D1908950E94570D811104C0DA
:1032E0000E94040E0E9463190E9458198093FE02E6
:1032F000883320F0877080638093FE029091FE02F5
:10330000892F817090FF04C0892F869586958695B8
:103310000E94751A08958091FE02982F96959695B1
:103320009695963040F49F5F990F990F990F87708B
:10333000892B8093FE028091FE0281608093FE02C1
:103340000E945D198091FE028695869586950E9461
:10335000751A08958091FE02982F987F79F0885011
:103360008093FE02887F91E009F490E08091FE0254
:1033700090FB80F98093FE020E945D198091FE020D
:103380008695869586950E94751A08958091FE020D
:1033900080FD13C081608093FE02813019F489E0C2
:1033A0008093FE028091FE020E945D198091FE02D0
:1033B0008695869586950E94751A08958091FE02DD
:1033C00080FF08C08E7F8093FE020E945D1980E01E
:1033D0000E94751A08958091FE0280FF03C00E942A
:1033E000DE1908950E94C61908959091FE02892F52
:1033F0008695869586958F5F8F7197708730E0F4FC
:10340000880F880F880F892B8093FE028091FE021F
:10341000887F91E009F490E08091FE0290FB80F9B2
:103420008093FE020E945D198091FE02869586952A
:1034300086950E94751A08959093FE02E7CF873013
:1034400008F086E09091FE029770282F220F220F3D
:10345000220F922B9093FE02987F21E009F420E046
:103460009091FE0220FB90F99093FE020E94751A43
:1034700008950E941F1A8091FE020E945D1908950E
:103480009C01FB018281882349F12E3BFCE53F072B
:10349000C9F040F42C3BECE53E0769F02D3B3C4580
:1034A00079F00895203C9CE5390791F070F0213CBB
:1034B0003C4589F0089586E00E94391A80E008951D
:1034C00080E0FACF0E94AA19F9CF0E948B19F6CF9B
:1034D0000E94EB19F3CF0E94F519F0CF81E0089517
:1034E000279A2F9808952F9808958F929F92AF92C0
:1034F000BF92EF92FF920F931F93CF93DF93C82F4A
:103500008730C0F5811137C080918000877F80931C
:1035100080000E94731AA0918600B09187002C2F22
:1035200030E00E94902726E030E040E050E00E942A
:10353000602789019A0180918600909187006CE054
:1035400070E00E94382760177107D8F0C80169E061
:1035500070E00E94382770938D0060938C00DF919B
:10356000CF911F910F91FF90EF90BF90AF909F90E0
:103570008F900895C6E080918000886080938000DD
:10358000CACF8091860090918700E0908600F090ED
:103590008700E0918600F0918700C6E0D0E0BE0190
:1035A0000E943827060F171F211D311D48015901A0
:1035B00085E0880C991CAA1CBB1C8A95D1F7C70111
:1035C000BE010E9438279F0150E040E0260F371FC0
:1035D000411D511DC501B4010E94602749015A01D6
:1035E000E0918600F0918700CA01B9010E941A2774
:1035F0009B01AC01DF010E94A6279B01AC01C50124
:10360000B4010E941A272FE09695879577956795C4
:103610002A95D1F7009186001091870030E020E0D4
:10362000061717072807390708F095CF609186001D
:103630007091870090CF08950E94701A8AE080935D
:10364000800089E1809381008FEF9FEF9093870046
:10365000809386000E946C190895879A41B34F7732
:1036600051B35068EFB7F8949B01220F331F260F18
:10367000371F280F391F2817390741F4EFBF8FE58F
:1036800094E00197F1F700C000000895DC016D910E
:10369000CD0178E051BB000000C067FF41BB660F61
:1036A000000000C000C000C041BB00C07A9591F787
:1036B000E2CFCF93DF93EC01FB018281882309F4F1
:1036C00033C1C430FDE5DF07C0F5CB3F9CE5D9072A
:1036D00030F49E0122503C4524313105B0F50E9462
:1036E0006C0D9093C6028093C502C1318CE5D8075A
:1036F00009F4EEC008F069C0C930ECE5DE0709F452
:10370000D5C0C8F5C5308CE5D80709F4C7C000F5A9
:10371000C330ECE5DE0709F4B9C008F0BBC0C23025
:10372000DC4509F4ADC08091C5029091C6020E94AB
:103730007A0D0E94690780E008C0C236EDE5DE0719
:1037400071F2C63AFDE5DF0751F2DF91CF9108959E
:103750008091C5028062C7309CE5D90709F493C007
:103760008091C5028061C830DC4508F48CC080912E
:10377000C502806488C08091C5028B7FCD30FCE596
:10378000DF0709F480C098F48091C5028E7FCB30AA
:103790009CE5D90709F477C08091C5028C60CC30D4
:1037A000DC4508F470C08091C5028D7F6CC08091AB
:1037B000C5028F7ECF30FCE5DF0709F464C008F452
:1037C0007BC08091C5028F7D5EC0CE3F9CE5D9074E
:1037D00009F47AC050F5C531FCE5DF0709F486C06D
:1037E00098F48091C502837FC3319CE5D90709F421
:1037F0004AC008F471C00E9469079091C502892FE0
:1038000097FB87F980583FC0CC3FFCE5DF0709F400
:1038100049C008F055C08091C6028160CB3FDC45AD
:1038200009F081CF8093C6027ECFC230EDE5DE077E
:1038300009F468C0A8F4C1158DE5D80709F452C091
:103840008091C6028360C130DD4560F38091C6027D
:10385000982F909591708E7F892B90FB81F9E2CF04
:10386000C236EDE5DE0709F451C0C63AFDE5DF07D3
:1038700009F453C0C330DD4509F055CF80E043C0A3
:103880008091C50281608093C5024DCF8091C502B1
:103890008260F9CF8091C5028460F5CF8091C50226
:1038A0008860F1CF8091C6028260BCCF0E94690718
:1038B0008091C5028068E7CF8091C502877FE3CF02
:1038C0008091C6028E7FAECF8091C6028D7FAACF37
:1038D0008091C5028F7BD7CF0E9469078091C50276
:1038E0008F77D1CF8091C6028C7F9CCF8091C5020B
:1038F00082FB992790F921E0922790FB82F990FBB7
:1039000083F9C1CF81E00E94070E0DCF9091C502CF
:10391000892F8F7E94FF8061B6CF9091C502892F49
:103920008E7F90FF8160AFCF81E00FCF0F931F9309
:1039300041E050E060E070E08A019B0104C0000FAC
:10394000111F221F331F8A95D2F7C901B8010E94A7
:10395000B7070E9469071F910F910895EBEFE80FD9
:10396000EF3308F05AC0F0E0E459F74D0C94822789
:103970000E94040E81E0089580918302807F8093ED
:10398000830281E08093930208950E942403F2CF82
:1039900090918302892F8E7F90FF816080938302B4
:1039A00080FDE8CF817F80938302E4CF90918302F2
:1039B000892F8D7F91FF82608093830281FFDACF10
:1039C000809183028160EFCF90918302892F8B7F5A
:1039D00092FF84608093830282FDF2CFCBCF9091DF
:1039E0008302892F877F93FF88608093830283FD02
:1039F000E7CFC0CF0E9469079091C502892F97FB3E
:103A000087F980588093C502B5CF80E00E94961C4C
:103A1000B1CF8953FBCF8D51F9CF80E0089580E07D
:103A200008950E940F1D0895CF93C82F809193028F
:103A3000882331F0813099F01092930280E00DC01C
:103A40000E94690C8232D1F78C2F0E940F1D8111C8
:103A500016C08C2F0E94AE1C8170CF9108950E94D9
:103A6000690C823289F38C2F0E94111D811105C0CF
:103A7000C43171F038F4CB3079F781E0EDCF81E0DB
:103A800090E0EACFC93221F0C833B9F380E0E4CF47
:103A900010929302FBCFCF93DF93EB0186319C45CD
:103AA00011F50E94690C9A81992399F08A7A91E024
:103AB00009F490E090939402811109C089E20E9478
:103AC000410C0E94AA0C80E0DF91CF91089585E31C
:103AD000F6CF80919402811104C089E20E94490CC2
:103AE000F0CF85E3FBCF81E0EFCF0F931F93CF9310
:103AF000DF93C42FD22FFC0182818823C9F0409329
:103B000097020E94F01F909396028093950280E2A4
:103B10008C0F883040F4C77081E001C0880FCA95CF
:103B2000EAF70E94FF04DF91CF911F910F91089552
:103B300010919702141332C08091950290919602D1
:103B40000E940820883C910548F5C0E2CD0F1D1762
:103B5000B9F080E2810F883040F4177081E001C035
:103B6000880F1A95EAF70E940605C83048F481E0EC
:103B70009D2F977001C0880F9A95EAF70E94FF0465
:103B8000802F0E94F604C83070F6D77081E001C023
:103B9000880FDA95EAF70E940605C5CF80E28C0F00
:103BA000883008F6C77081E001C0880FCA95EAF72F
:103BB000F2CF0F939C01CB01243F4CE5340759F120
:103BC000A8F4293DFCE53F0701F12A3D4CE5340707
:103BD000D1F1283D3C4591F406E221EE41EE68ED3D
:103BE0007CE50E94751D80E00F910895263FFCE55D
:103BF0003F07E9F0B0F0273F3C45F9F0FC01828136
:103C0000882339F110929702EFCF07E225EE45EEB7
:103C100069ED7CE5E6CF06E221EE40EE64EF7CE55F
:103C2000E0CF07E225EE44EE65EF7CE5DACF06E271
:103C300021EE42EE66EF7CE5D4CF07E225EE46EEBC
:103C400067EF7CE5CECF08E221E045EE6AED7CE54A
:103C5000C8CF81E0C9CF9093BD018093BC01089586
:103C600090939D0280939C020895E0919C02F091B4
:103C70009D02309729F00190F081E02D099508957B
:103C800080E00895E0919C02F0919D02309799F0B8
:103C900020912101222359F02091C50227FF07C05E
:103CA000DC012C9111962C93119726E02C93028025
:103CB000F381E02D0995089520919A0230919B029D
:103CC0002817390771F090939B0280939A02E09134
:103CD0009C02F0919D02309721F00680F781E02D43
:103CE0000995089520919802309199022817390773
:103CF00071F09093990280939802E0919C02F09168
:103D00009D02309721F00084F185E02D09950895FA
:103D1000FC01329680912101882321F08091C50217
:103D20009EE187FF96E080E0915008F4089521918C
:103D30002223D1F38F5FF8CF662301F12091210177
:103D40002223F1F02091C50227FF1AC0462F469585
:103D5000469546954E3190F4677021E030E002C000
:103D6000220F331F6A95E2F7840F911DFC018281B7
:103D700090E02823392381E0232B69F480E0089523
:103D8000FC01329608962191261721F0E817F907D1
:103D9000D1F7F4CF81E008959C01FC0132969FEFAA
:103DA00080E04191461751F09F3F19F4411101C045
:103DB000982F8F5F8630A9F79F3F09F40895290F48
:103DC000311D97FD3A95F90162830895FC01329601
:103DD00008962191261303C0DF0111971C92E81762
:103DE000F907B9F70895E62FE695E695E695EE31E1
:103DF00068F4E80FF92FF11D677021E030E001C091
:103E0000220F6A95EAF78281822B82830895E62F3A
:103E1000E695E695E695EE3170F4E80FF92FF11D81
:103E2000677021E030E001C0220F6A95EAF7209523
:103E3000828128232283089520912101222339F0B1
:103E40002091C50227FF03C00E94F31E08950E941F
:103E5000CC1E089520912101222339F02091C50222
:103E600027FF03C00E94071F08950E94E61E0895C1
:103E7000FC01329680912101882351F08091C50286
:103E800087FF06C08EE1DF011D928A95E9F708954C
:103E900086E0F9CF08950E944A1F0895811106C057
:103EA00081E080939E020E944B1F089582E0F9CF2B
:103EB00083E080939E020E944B1F08950E944E1F34
:103EC000089581E080939E020E944B1F08950E94F6
:103ED000611F0895089508950E946B1F0895089525
:103EE00008950E946A1F0895CF930E946F1F0E9439
:103EF000DD110E94701FC0E08C2F0E940111892BE0
:103F000031F4CF5FC530C1F780E0CF91089581E0F3
:103F1000FCCF85B7806885BF85B7806885BF089569
:103F20001F921FB61F9211248F939F93AF93BF933D
:103F300080919F02811113C08091FF029091000334
:103F4000A0910103B09102034196A11DB11D809380
:103F5000FF0290930003A0930103B0930203BF916B
:103F6000AF919F918F911F901FBE1F9018958091C8
:103F70000703843031F10E948E0310929F0288E182
:103F800090E020E40FB6F894A895809360000FBEEF
:103F90002093600083B7817F846083BF83B7816093
:103FA00083BF7894889583B78E7F83BF0FB6F894CC
:103FB000A8958091600088618093600010926000F5
:103FC0000FBE08950E9469070E949603089582E03B
:103FD00084BD93E095BD9AEF97BD80936E000895E0
:103FE0002FB7F8948091FF0290910003A0910103F4
:103FF000B09102032FBF08952FB7F8946091FF028C
:104000007091000380910103909102032FBF0895E6
:104010009C014FB7F8948091FF0290910003A0910A
:104020000103B09102034FBF821B930B0895789454
:104030001F921FB61F9211248F939F93AF93BF932C
:104040008091FF0290910003A0910103B0910203BF
:104050000196A11DB11D8093FF0290930003A093D0
:104060000103B0930203BF91AF919F918F911F9075
:104070001FBE1F90189581E08093E00080E280933E
:10408000D8001092C9008FE19EE40197F1F700C0BB
:10409000000087E090EBDC01809310039093110304
:1040A000A0931203B093130388E19CE00FB6F89439
:1040B000A895809360000FBE90936000FFCF88E1C9
:1040C0009CE00FB6F894A895809360000FBE909383
:1040D0006000FFCF8091C30208950895CF93DF93CE
:1040E000EC01809121018823B1F18091C50287FF05
:1040F00032C060E282E08093E9008FEF9091E800A7
:10410000815095FD06C095ED9A95F1F7000081115B
:10411000F5CF8091E80085FF1BC08091210170E000
:1041200050E040E0811104C050E040E068E070E001
:10413000CE010E9493228091E8008E778093E80060
:1041400080E2FE01A3EAB2E001900D928A95E1F7C8
:10415000DF91CF91089568E081E0CDCF8093A002F8
:104160007093A2026093A10280910703843001F54D
:1041700082E08093E9008FEF9091E800815095FDF7
:1041800006C095ED9A95F1F700008111F5CF809169
:10419000E80085FF0DC050E040E063E070E080EA99
:1041A00092E00E9493228091E8008E778093E8004D
:1041B0000895BC0184E00E94AE200895BC0183E014
:1041C0000E94AE200895089580910603811109C0D0
:1041D0000E9423240E9480248091E20084608093C6
:1041E000E20008951092060308950E94611F089549
:1041F0006091030381E0611101C080E00E94581FBB
:1042000008959091070381E0943009F080E0609177
:1042100003030E945E1F089542E061EC81E00E946A
:104220009F2342E261EC82E00E949F23909107036A
:1042300081E0943009F080E0609103030E944E1FFA
:10424000089580910903833009F461C030F481300E
:10425000D1F1823009F49EC008958A3009F48AC0F1
:104260008B3009F46FC0893009F050C08091080389
:10427000813209F04BC080910C0390910D0302979D
:1042800008F044C08091E800877F8093E800809127
:10429000E80082FF37C09091F3008091F20002970E
:1042A00031F48091F100813011F0863021F4809159
:1042B000F1008093C3028091E8008B778093E8003F
:1042C0000E94D32323C080910803813AF9F480919E
:1042D000E800877F8093E80080910C0390910D03A4
:1042E000892B61F460E283EA92E070E00E94E222AE
:1042F0008091E8008B778093E800089560E090E07B
:1043000080E0F3CF809107038111C1CF08958091A0
:104310000803813AD9F780910C0390910D03892B02
:10432000A9F78091E800877F8093E8008091E800FA
:1043300080FFFCCF809121018093F1008091E80003
:104340008E77BCCF80910803813201F780910C03F6
:1043500090910D03892BD1F68091E800877F80939F
:10436000E8000E94D32380910A03809321010E94D8
:104370006907089580910803813241F68091E80031
:10438000877F8093E8000E94D32380910B03809362
:10439000C402089580910803813A09F0B7CF809153
:1043A000E800877F8093E8008091E80080FFFCCFE1
:1043B0008091C402C1CF84B7877F84BF0FB6F894C1
:1043C000A8958091600088618093600010926000E1
:1043D0000FBE80E890E00FB6F89480936100909350
:1043E00061000FBE0E94671F08950E9423240E944F
:1043F0008024E2EEF0E080818460808378940E94E3
:10440000FF26089585E191E00E94301E0895809175
:104410000703853031F480910703853019F00E943D
:10442000E21F08950E94B71F80910503882399F326
:104430000E94741F882379F30E947D220E946907DD
:10444000EACF08950E9425220895292F332723308B
:10445000310519F168F42130310509F444C02230E6
:10446000310509F445C090E080E030E020E025C04F
:104470002132310549F122323105A9F780E490E07B
:104480002BEC34E061157105C1F08DE690E02EE56E
:1044900034E06130710589F0E6CF992781309105CC
:1044A00081F0009729F00297F1F6EBEDF3E002C0FE
:1044B000EDE0F4E0849190E09F01FA0131832083E4
:1044C0000895EDEEF3E0F6CF89E090E023E234E0EA
:1044D0006115710591F389E090E02CE334E06130DF
:1044E000710559F3C0CF82E190E02CE434E0E5CFD0
:1044F0008BE390E021E134E0E0CF80E189BD82E10F
:1045000089BD09B400FEFDCF8091D8008F7D8093D6
:10451000D8008091E00082608093E0008091E0000C
:1045200081FDFCCF0895AF92BF92CF92DF92FF92B0
:104530000F931F93CF93DF936C01EB018A010E94CD
:10454000F223F82E811123C00115110539F0F8016D
:1045500080819181C81BD90BC80ED91EB12CA12C0A
:104560002097A9F08091E80085FD22C08091E800A5
:104570008E778093E80001151105A1F0F801808184
:104580009181A80EB91EB182A08285E0F82E8F2DF0
:10459000DF91CF911F910F91FF90DF90CF90BF904F
:1045A000AF9008950E94F2238823D1F2F82EEFCF26
:1045B000F60181916F018093F1002197FFEFAF1A0F
:1045C000BF0ACECFFC0180910E0390910F03861796
:1045D0009707A0F06115710529F49091E8009E7786
:1045E0009093E80090E06115710551F4911108C0B5
:1045F0008091E80082FF34C080E00895BC01F2CFD2
:10460000809107038823C1F18530C1F18091E800D2
:1046100083FD30C08091E80082FDEACF8091E80000
:1046200080FFE1CF8091F3002091F200382F6115D7
:10463000710519F02830310558F091E02830310526
:1046400009F090E02091E8002E772093E800CBCF8E
:1046500081918093F100615071092F5F3F4FE7CF47
:1046600080910703882341F0853041F08091E80074
:1046700083FFBECF81E0089582E0089583E008952E
:10468000FC0180910E0390910F0386179707A0F00D
:104690006115710529F48091E8008E778093E80018
:1046A00090E06115710551F4911108C08091E80006
:1046B00082FF35C080E00895BC01F2CF80910703EE
:1046C0008823C9F18530C9F18091E80083FD31C0AC
:1046D0008091E80082FDEACF8091E80080FFE1CF81
:1046E0008091F3002091F200382F6115710519F0C7
:1046F0002830310558F091E02830310509F090E07C
:104700008091E8008E778093E800CBCF84918093EE
:10471000F1003196615071092F5F3F4FE6CF8091D4
:104720000703882341F0853041F08091E80083FF42
:10473000BDCF81E0089582E0089583E00895982F29
:10474000973028F08F708093E90081E0089590936E
:10475000E900242F762F50E0981731F07091EC008B
:104760002091ED005091F00021FD02C09F5FE8CF45
:104770003091EB003E7F3093EB003091ED003D7FB8
:104780003093ED003091EB0031603093EB0070938B
:10479000EC002093ED005093F0002091EE0027FDF7
:1047A000E5CF80E008958091080387FF13C08091D2
:1047B000E80082FF06C08091E8008B778093E800D4
:1047C00004C0809107038111F2CF089580910703FF
:1047D0008823D9F38091E80080FFF8CF8091E8002A
:1047E0008E77ECCF2091E4003091E50095E6A901A9
:1047F0002091EC00822F817020FF06C08091E8009C
:1048000080FF06C080E008952091E80022FD1AC0D4
:1048100080910703882389F0853089F08091EB002F
:1048200085FD0FC02091E4003091E5004217530749
:10483000F9F29150E1F684E0089582E0089583E072
:10484000089581E008950E9492240E949A24E0EE47
:10485000F0E0808181608083E8EDF0E080818F77F7
:10486000808319BCA7EDB0E08C918E7F8C93808102
:104870008F7E80831092060308950F931F93CF932A
:10488000DF930E9492240E949A24C8EDD0E0888190
:104890008F77888388818068888388818F7D8883EB
:1048A00019BC109207031092030310920503109293
:1048B000040300EE10E0F80180818B7F8083888103
:1048C0008160888342E060E080E00E949F23E1EE07
:1048D000F0E080818E7F8083E2EEF0E08081816075
:1048E0008083808188608083F80180818E7F8083CF
:1048F000888180618883DF91CF911F910F91089506
:10490000E8EDF0E080818F7E8083E7EDF0E080814C
:104910008160808384E082BF81E0809306030E94EF
:104920003D240895E8EDF0E080818E7F8083109231
:10493000E20008951092DA001092E10008951F92AB
:104940000F920FB60F9211242F933F934F935F93C3
:104950006F937F938F939F93AF93BF93EF93FF9347
:104960008091E10082FF0BC08091E20082FF07C0CE
:104970008091E1008B7F8093E1000E94FE26809170
:10498000DA0080FF19C08091D80080FF15C08091A7
:10499000DA008E7F8093DA008091D90080FF96C084
:1049A00080E189BD82E189BD09B400FEFDCF81E0CF
:1049B000809307030E94E4208091E10080FF19C0EA
:1049C0008091E20080FF15C08091E2008E7F80938D
:1049D000E2008091E20080618093E2008091D80043
:1049E00080628093D80019BC85E0809307030E9401
:1049F000F8208091E10084FF2BC08091E20084FFC9
:104A000027C080E189BD82E189BD89B5982F917069
:104A100080FFFBCF8091D8008F7D8093D80080915C
:104A2000E1008F7E8093E1008091E2008F7E809391
:104A3000E2008091E20081608093E20080910303B4
:104A4000882309F449C084E0809307030E94012170
:104A50008091E10083FF29C08091E20083FF25C09F
:104A60008091E100877F8093E10082E080930703DB
:104A7000109203038091E1008E7F8093E10080918A
:104A8000E2008E7F8093E2008091E200806180935B
:104A9000E20042E060E080E00E949F238091F0000D
:104AA00088608093F0000E94F520FF91EF91BF9104
:104AB000AF919F918F917F916F915F914F913F91B6
:104AC0002F910F900FBE0F901F90189519BC109248
:104AD00007030E94F22070CF8091E30087FD93E0EE
:104AE00090930703B3CF1F920F920FB60F9211242A
:104AF0002F933F934F935F936F937F938F939F93E6
:104B0000AF93BF93CF93DF93EF93FF93D091E900DF
:104B1000DF708091EC00C82FC17080FDC0E810925A
:104B2000E9008091F000877F8093F00078940E94E4
:104B3000B7251092E9008091F00088608093F00022
:104B4000CD2BCF70C093E900FF91EF91DF91CF9112
:104B5000BF91AF919F918F917F916F915F914F9195
:104B60003F912F910F900FBE0F901F901895AAE2C2
:104B7000B0E0EDEBF5E20C94C82788E093E02091DB
:104B8000F100FC012193CF01F3E080319F07B9F7D9
:104B90000E9421218091E80083FF1EC180910803BB
:104BA000909109039A3008F017C1E92FF0E0E5551C
:104BB000F74D0C948227803899F0823809F00CC1A7
:104BC00080910C038F70873008F006C18093E90054
:104BD0008091EB0085FB882780F91092E90006C0E0
:104BE0008091040390910503911182609091E800F7
:104BF000977F9093E8008093F1001092F1008091EC
:104C0000E8008E77E5C0882309F4D3C0823009F02C
:104C1000E3C080910A038111D6C080910C038F708C
:104C20002FEF280F263008F0D7C08093E90020919D
:104C3000EB0020FFC8C0933031F48091EB0080621C
:104C40008093EB00C0C09091EB0090619093EB00DB
:104C500021E030E001C0220F8A95EAF72093EA00B4
:104C60001092EA008091EB008860EACF8111B4C015
:104C700010910A031F778091E3008078812B809345
:104C8000E3008091E800877F8093E8000E94D323AF
:104C90008091E80080FFFCCF8091E30080688093E2
:104CA000E30082E0111183E08093070395C08058F0
:104CB000823008F091C080910A0390910B038C3DE3
:104CC00023E09207A1F583E08A838AE289834FB7C4
:104CD000F894DE01139620E03EE051E2E32FF0E08D
:104CE00050935700E49120FF03C0E295EF703F5FBF
:104CF000EF708E2F90E0EA30C0F0C7968D939D93B1
:104D00002F5F243159F74FBF8091E800877F809350
:104D1000E8006AE270E0CE0101960E94E2228091F2
:104D2000E8008B778093E80057C0C096E7CF60918A
:104D30000C0370910D03AE014F5F5F4F0E94222262
:104D4000BC01892B09F448C09091E800977F9093AB
:104D5000E80089819A810E944023E1CF8038E1F503
:104D60008091E800877F8093E8008091030380931F
:104D7000F10045CF811130C090910A03923060F567
:104D80008091E800877F8093E800909303030E945E
:104D9000D32380910303882311F084E005C0809120
:104DA000E30087FDFACF81E0809307030E940C2186
:104DB00013C080910A03813079F481E0933009F0C7
:104DC00080E0809305031092E9008091E800877FDE
:104DD0008093E8000E94D3238091E80083FF0AC0FB
:104DE0008091E800877F8093E8008091EB008062EB
:104DF0008093EB00AA96E3E00C94E4270895CF9308
:104E0000809107038823A1F0C091E900CF709091B1
:104E1000EC00892F817090FD80E8C82B1092E9008A
:104E20008091E80083FD0E94B725CF70C093E90010
:104E3000CF910895DB018F939F930E94A627BF9186
:104E4000AF91A29F800D911DA39F900DB29F900DD9
:104E50001124089587FB082E062687FD819567FD9E
:104E600061950E94F0270EF4919507FC81950895B5
:104E7000AA1BBB1B51E107C0AA1FBB1FA617B70780
:104E800010F0A61BB70B881F991F5A95A9F780959C
:104E90009095BC01CD01089597FB072E16F4009460
:104EA00007D077FD09D00E94382707FC05D03EF4D3
:104EB000909581959F4F0895709561957F4F0895C6
:104EC000A1E21A2EAA1BBB1BFD010DC0AA1FBB1F0E
:104ED000EE1FFF1FA217B307E407F50720F0A21B80
:104EE000B30BE40BF50B661F771F881F991F1A94ED
:104EF00069F760957095809590959B01AC01BD0117
:104F0000CF010895EE0FFF1F0590F491E02D099455
:104F10000E949027332312F48A1B9B0B0C94A12729
:104F2000A29FB001B39FC001A39F700D811D1124EA
:104F3000911DB29F700D811D1124911D08950E9435
:104F40009027B7FF0895821B930B08950E94902726
:104F5000A59F900DB49F900DA49F800D911D1124CD
:104F60000895B7FF0C94A6270E94A627821B930BD7
:104F700008952F923F924F925F926F927F928F92FD
:104F80009F92AF92BF92CF92DF92EF92FF920F93D8
:104F90001F93CF93DF93CDB7DEB7CA1BDB0B0FB6E2
:104FA000F894DEBF0FBECDBF09942A88398848889F
:104FB0005F846E847D848C849B84AA84B984C88435
:104FC000DF80EE80FD800C811B81AA81B981CE0F2C
:104FD000D11D0FB6F894DEBF0FBECDBFED01089511
:104FE000991B79E004C0991F961708F0961B881F3B
:104FF0007A95C9F780950895FC014150504030F0F2
:1050000001900616D1F73197CF0108958827992787
:105010000895FB01DC0104C08D910190801921F4F9
:1050200041505040C8F7881B990B0895F999FECF5D
:1050300092BD81BDF89A992780B50895A6E1B0E0A8
:1050400044E050E00C945028A8E1B0E042E050E089
:105050000C945028262FF999FECF92BD81BDF89A65
:10506000019700B4021639F01FBA20BD0FB6F894AC
:10507000FA9AF99A0FBE08950396272F0E942B28BB
:105080000E942A28252F0E942B28242F0C942B289D
:105090000196272F0E942B280C942A28DC01CB0193
:1050A000FC01F999FECF06C0F2BDE1BDF89A319638
:1050B00000B40D9241505040B8F70895F894FFCFD6
:1050C00048054805790579050606A805A805A80537
:1050D0002206AE06BD06BD06C51CBC1CC81CBA1CFB
:1050E0000D1D0D1DBA1C0D1D0D1DE41C0D1DEF1C0D
:1050F000FA1C0D1D0D1D0D1D0D1DBA1C0D1D0D1DC8
:10510000BA1C0D1DD61C0D1D0D1D0B1D0B1D0B1DE1
:105110000B1D0B1D0B1D0B1D0B1D0B1D051D0D1D53
:10512000C51CB81C0D1D0D1D0D1D0D1D0D1D0D1DCE
:105130000D1D0D1D0D1D0D1D051D0D1D0D1DBA1C7B
:105140000D1D091D091D091D091D091D091D091D2B
:10515000091D091D051DDB250326EC260326EC266B
:0A51600036265726EC26AE26BA26A6
:10516A004F02010102000A000A0A01191A1B1C1D3A
:10517A001E1F2021226A206E20E320DE20D9206D06
:10518A002001E200E900EA00B500B600B700CD0050
:10519A008301CC008A019201940121022302240294
:1051AA002502260227022A02B300B4006F0070000B
:1051BA00818283E200E900EA00B500B600B700CDBB
:1051CA00008301CC008A0192019401210223022466
:1051DA00022502260227022A02B300B4006F0070D9
:1051EA0000818283F0F1C66766369431323534978E
:1051FA0096339091929395000102020202060606E6
:10520A000909090909090F0F0F0F0F0F15151518AD
:0C521A0019191919191919191919232447
:00000001FF
